{
  "contractName": "TenderManagament",
  "abi": [
    {
      "inputs": [],
      "stateMutability": "nonpayable",
      "type": "constructor"
    },
    {
      "anonymous": false,
      "inputs": [
        {
          "indexed": false,
          "internalType": "string",
          "name": "message",
          "type": "string"
        },
        {
          "indexed": false,
          "internalType": "uint256",
          "name": "value",
          "type": "uint256"
        }
      ],
      "name": "Debug",
      "type": "event"
    },
    {
      "anonymous": false,
      "inputs": [
        {
          "indexed": false,
          "internalType": "string",
          "name": "reason",
          "type": "string"
        }
      ],
      "name": "ErrorHandled",
      "type": "event"
    },
    {
      "anonymous": false,
      "inputs": [
        {
          "indexed": true,
          "internalType": "address",
          "name": "tender",
          "type": "address"
        },
        {
          "indexed": true,
          "internalType": "address",
          "name": "licitador",
          "type": "address"
        }
      ],
      "name": "NuevaLicitacion",
      "type": "event"
    },
    {
      "inputs": [],
      "name": "payments",
      "outputs": [
        {
          "internalType": "contract Payments",
          "name": "",
          "type": "address"
        }
      ],
      "stateMutability": "view",
      "type": "function",
      "constant": true
    },
    {
      "inputs": [
        {
          "internalType": "uint256",
          "name": "",
          "type": "uint256"
        }
      ],
      "name": "tenderList",
      "outputs": [
        {
          "internalType": "address",
          "name": "",
          "type": "address"
        }
      ],
      "stateMutability": "view",
      "type": "function",
      "constant": true
    },
    {
      "inputs": [],
      "name": "userManagament",
      "outputs": [
        {
          "internalType": "contract UserManagament",
          "name": "",
          "type": "address"
        }
      ],
      "stateMutability": "view",
      "type": "function",
      "constant": true
    },
    {
      "inputs": [
        {
          "internalType": "uint256",
          "name": "_deadline",
          "type": "uint256"
        },
        {
          "internalType": "uint256",
          "name": "_revealTime",
          "type": "uint256"
        },
        {
          "internalType": "uint256",
          "name": "_evaluationTime",
          "type": "uint256"
        }
      ],
      "name": "registrarLicitacion",
      "outputs": [],
      "stateMutability": "nonpayable",
      "type": "function"
    },
    {
      "inputs": [],
      "name": "getTenders",
      "outputs": [
        {
          "internalType": "address[]",
          "name": "",
          "type": "address[]"
        }
      ],
      "stateMutability": "view",
      "type": "function",
      "constant": true
    }
  ],
  "bytecode": "0x608060405234801561001057600080fd5b503360405161001e906100f3565b6100289190610150565b604051809103906000f080158015610044573d6000803e3d6000fd5b50600160006101000a81548173ffffffffffffffffffffffffffffffffffffffff021916908373ffffffffffffffffffffffffffffffffffffffff16021790555060405161009190610101565b604051809103906000f0801580156100ad573d6000803e3d6000fd5b50600260006101000a81548173ffffffffffffffffffffffffffffffffffffffff021916908373ffffffffffffffffffffffffffffffffffffffff16021790555061016b565b61165480620040cd83390190565b61029d806200572183390190565b600073ffffffffffffffffffffffffffffffffffffffff82169050919050565b600061013a8261010f565b9050919050565b61014a8161012f565b82525050565b60006020820190506101656000830184610141565b92915050565b613f52806200017b6000396000f3fe60806040523480156200001157600080fd5b50600436106200005e5760003560e01c806312d0ec80146200006357806349de89aa14620000855780635115aa5414620000a75780636020c1d314620000dd578063a6d23e1014620000fd575b600080fd5b6200006d6200011f565b6040516200007c91906200066c565b60405180910390f35b6200008f620001af565b6040516200009e9190620006fb565b60405180910390f35b620000c56004803603810190620000bf919062000762565b620001d5565b604051620000d49190620007a5565b60405180910390f35b620000fb6004803603810190620000f59190620007c2565b62000215565b005b6200010762000536565b60405162000116919062000843565b60405180910390f35b60606000805480602002602001604051908101604052809291908181526020018280548015620001a557602002820191906000526020600020905b8160009054906101000a900473ffffffffffffffffffffffffffffffffffffffff1673ffffffffffffffffffffffffffffffffffffffff16815260200190600101908083116200015a575b5050505050905090565b600160009054906101000a900473ffffffffffffffffffffffffffffffffffffffff1681565b60008181548110620001e657600080fd5b906000526020600020016000915054906101000a900473ffffffffffffffffffffffffffffffffffffffff1681565b600160009054906101000a900473ffffffffffffffffffffffffffffffffffffffff1673ffffffffffffffffffffffffffffffffffffffff166324d7806c336040518263ffffffff1660e01b8152600401620002729190620007a5565b602060405180830381865afa15801562000290573d6000803e3d6000fd5b505050506040513d601f19601f82011682018060405250810190620002b691906200089d565b620002f8576040517f08c379a0000000000000000000000000000000000000000000000000000000008152600401620002ef9062000930565b60405180910390fd5b828282600260009054906101000a900473ffffffffffffffffffffffffffffffffffffffff16336040516200032d906200055c565b6200033d95949392919062000963565b604051809103906000f08015620003515760015b620004395762000360620009cd565b806308c379a003620003c457506200037762000a68565b80620003845750620003c6565b7f4f17d5cf0427b4fe5e5649c407d3021315cfaa7216c9e58c369ef3937c40801a81604051620003b5919062000b85565b60405180910390a15062000433565b505b3d8060008114620003f4576040519150601f19603f3d011682016040523d82523d6000602084013e620003f9565b606091505b507f4f17d5cf0427b4fe5e5649c407d3021315cfaa7216c9e58c369ef3937c40801a604051620004299062000bf9565b60405180910390a1505b62000531565b6000819080600181540180825580915050600190039060005260206000200160009091909190916101000a81548173ffffffffffffffffffffffffffffffffffffffff021916908373ffffffffffffffffffffffffffffffffffffffff1602179055503373ffffffffffffffffffffffffffffffffffffffff168173ffffffffffffffffffffffffffffffffffffffff167f63c811722729622a0143d68e92358f96a259b65e88aeeb4e92d8a8399e1b176060405160405180910390a37f3c5ad147104e56be34a9176a6692f7df8d2f4b29a5af06bc6b98970d329d65774260405162000527919062000c6b565b60405180910390a1505b505050565b600260009054906101000a900473ffffffffffffffffffffffffffffffffffffffff1681565b61327f8062000c9e83390190565b600081519050919050565b600082825260208201905092915050565b6000819050602082019050919050565b600073ffffffffffffffffffffffffffffffffffffffff82169050919050565b6000620005c38262000596565b9050919050565b620005d581620005b6565b82525050565b6000620005e98383620005ca565b60208301905092915050565b6000602082019050919050565b60006200060f826200056a565b6200061b818562000575565b9350620006288362000586565b8060005b838110156200065f578151620006438882620005db565b97506200065083620005f5565b9250506001810190506200062c565b5085935050505092915050565b6000602082019050818103600083015262000688818462000602565b905092915050565b6000819050919050565b6000620006bb620006b5620006af8462000596565b62000690565b62000596565b9050919050565b6000620006cf826200069a565b9050919050565b6000620006e382620006c2565b9050919050565b620006f581620006d6565b82525050565b6000602082019050620007126000830184620006ea565b92915050565b6000604051905090565b600080fd5b6000819050919050565b6200073c8162000727565b81146200074857600080fd5b50565b6000813590506200075c8162000731565b92915050565b6000602082840312156200077b576200077a62000722565b5b60006200078b848285016200074b565b91505092915050565b6200079f81620005b6565b82525050565b6000602082019050620007bc600083018462000794565b92915050565b600080600060608486031215620007de57620007dd62000722565b5b6000620007ee868287016200074b565b935050602062000801868287016200074b565b925050604062000814868287016200074b565b9150509250925092565b60006200082b82620006c2565b9050919050565b6200083d816200081e565b82525050565b60006020820190506200085a600083018462000832565b92915050565b60008115159050919050565b620008778162000860565b81146200088357600080fd5b50565b60008151905062000897816200086c565b92915050565b600060208284031215620008b657620008b562000722565b5b6000620008c68482850162000886565b91505092915050565b600082825260208201905092915050565b7f5573756172696f206e6f206175746f72697a61646f0000000000000000000000600082015250565b600062000918601583620008cf565b91506200092582620008e0565b602082019050919050565b600060208201905081810360008301526200094b8162000909565b9050919050565b6200095d8162000727565b82525050565b600060a0820190506200097a600083018862000952565b62000989602083018762000952565b62000998604083018662000952565b620009a7606083018562000794565b620009b6608083018462000794565b9695505050505050565b60008160e01c9050919050565b600060033d1115620009ef5760046000803e620009ec600051620009c0565b90505b90565b6000601f19601f8301169050919050565b7f4e487b7100000000000000000000000000000000000000000000000000000000600052604160045260246000fd5b62000a3d82620009f2565b810181811067ffffffffffffffff8211171562000a5f5762000a5e62000a03565b5b80604052505050565b600060443d1062000b005762000a7d62000718565b60043d036004823e80513d602482011167ffffffffffffffff8211171562000aa757505062000b00565b808201805167ffffffffffffffff81111562000ac7575050505062000b00565b80602083010160043d03850181111562000ae657505050505062000b00565b62000af78260200185018662000a32565b82955050505050505b90565b600081519050919050565b60005b8381101562000b2e57808201518184015260208101905062000b11565b8381111562000b3e576000848401525b50505050565b600062000b518262000b03565b62000b5d8185620008cf565b935062000b6f81856020860162000b0e565b62000b7a81620009f2565b840191505092915050565b6000602082019050818103600083015262000ba1818462000b44565b905092915050565b7f4c6f772d6c6576656c206572726f72206f636375727265640000000000000000600082015250565b600062000be1601883620008cf565b915062000bee8262000ba9565b602082019050919050565b6000602082019050818103600083015262000c148162000bd2565b9050919050565b7f7265676973747261724c696369746163696f6e2066696e697368656400000000600082015250565b600062000c53601c83620008cf565b915062000c608262000c1b565b602082019050919050565b6000604082019050818103600083015262000c868162000c44565b905062000c97602083018462000952565b9291505056fe60806040523480156200001157600080fd5b506040516200327f3803806200327f833981810160405281019062000037919062000257565b80600260006101000a81548173ffffffffffffffffffffffffffffffffffffffff021916908373ffffffffffffffffffffffffffffffffffffffff16021790555084426200008691906200030e565b600381905550836003546200009c91906200030e565b60048190555082600454620000b291906200030e565b6005819055506001600660006101000a81548160ff02191690831515021790555081600760006101000a81548173ffffffffffffffffffffffffffffffffffffffff021916908373ffffffffffffffffffffffffffffffffffffffff160217905550600260009054906101000a900473ffffffffffffffffffffffffffffffffffffffff1673ffffffffffffffffffffffffffffffffffffffff163073ffffffffffffffffffffffffffffffffffffffff167fb6d0e741d83edef5176737959a01073fd2fc230e0a6d3ed578c3bbfdf8d7be126003546004546005546040516200019f939291906200037c565b60405180910390a35050505050620003b9565b600080fd5b6000819050919050565b620001cc81620001b7565b8114620001d857600080fd5b50565b600081519050620001ec81620001c1565b92915050565b600073ffffffffffffffffffffffffffffffffffffffff82169050919050565b60006200021f82620001f2565b9050919050565b620002318162000212565b81146200023d57600080fd5b50565b600081519050620002518162000226565b92915050565b600080600080600060a08688031215620002765762000275620001b2565b5b60006200028688828901620001db565b95505060206200029988828901620001db565b9450506040620002ac88828901620001db565b9350506060620002bf8882890162000240565b9250506080620002d28882890162000240565b9150509295509295909350565b7f4e487b7100000000000000000000000000000000000000000000000000000000600052601160045260246000fd5b60006200031b82620001b7565b91506200032883620001b7565b9250827fffffffffffffffffffffffffffffffffffffffffffffffffffffffffffffffff0382111562000360576200035f620002df565b5b828201905092915050565b6200037681620001b7565b82525050565b60006060820190506200039360008301866200036b565b620003a260208301856200036b565b620003b160408301846200036b565b949350505050565b612eb680620003c96000396000f3fe608060405234801561001057600080fd5b50600436106101005760003560e01c806399363f7211610097578063b9d5862911610066578063b9d5862914610277578063dfafe10f14610295578063dfbf53ae146102b1578063ecdc25aa146102cf57610100565b806399363f72146101f1578063b14b28a31461020d578063b4560fc81461022b578063b9bd2eea1461024757610100565b80633213e094116100d35780633213e0941461016757806335c1d349146101975780635aa68ac0146101c95780638f60c0e2146101e757610100565b806302d6c3141461010557806302fb0c5e1461012157806325fa61531461013f57806329dcb0cf14610149575b600080fd5b61011f600480360381019061011a9190611e80565b6102ed565b005b6101296106be565b6040516101369190611f6a565b60405180910390f35b6101476106d1565b005b610151610817565b60405161015e9190611f94565b60405180910390f35b610181600480360381019061017c9190611faf565b61081d565b60405161018e9190611f94565b60405180910390f35b6101b160048036038101906101ac9190611fdc565b610835565b6040516101c09392919061216e565b60405180910390f35b6101d1610a8b565b6040516101de919061226a565b60405180910390f35b6101ef610b9c565b005b61020b6004803603810190610206919061228c565b610ba6565b005b610215611094565b6040516102229190611f94565b60405180910390f35b61024560048036038101906102409190611faf565b61109a565b005b610261600480360381019061025c9190611faf565b6115d2565b60405161026e9190612317565b60405180910390f35b61027f61188a565b60405161028c9190612339565b60405180910390f35b6102af60048036038101906102aa9190611faf565b6118b0565b005b6102b9611ae3565b6040516102c69190612339565b60405180910390f35b6102d7611b09565b6040516102e49190611f94565b60405180910390f35b60011515600660009054906101000a900460ff16151514610343576040517f08c379a000000000000000000000000000000000000000000000000000000000815260040161033a906123d7565b60405180910390fd5b600354421115610388576040517f08c379a000000000000000000000000000000000000000000000000000000000815260040161037f90612469565b60405180910390fd5b610390611b0f565b600660009054906101000a900460ff166103df576040517f08c379a00000000000000000000000000000000000000000000000000000000081526004016103d6906123d7565b60405180910390fd5b8473ffffffffffffffffffffffffffffffffffffffff163373ffffffffffffffffffffffffffffffffffffffff161461044d576040517f08c379a000000000000000000000000000000000000000000000000000000000815260040161044490612521565b60405180910390fd5b6000600160008773ffffffffffffffffffffffffffffffffffffffff1673ffffffffffffffffffffffffffffffffffffffff168152602001908152602001600020549050600081116104d4576040517f08c379a00000000000000000000000000000000000000000000000000000000081526004016104cb906125b3565b60405180910390fd5b60006002836040516020016104e9919061260f565b604051602081830303815290604052604051610505919061266d565b602060405180830381855afa158015610522573d6000803e3d6000fd5b5050506040513d601f19601f8201168201806040525081019061054591906126b0565b9050600080600184610557919061270c565b8154811061056857610567612740565b5b906000526020600020906008020190506040518060c00160405280868152602001888152602001878152602001838152602001604051806020016040528060008152508152602001600015158152508160010160008201518160000190805190602001906105d7929190611bb4565b506020820151816001015560408201518160020190805190602001906105fe929190611bb4565b50606082015181600301556080820151816004019080519060200190610625929190611bb4565b5060a08201518160050160006101000a81548160ff02191690831515021790555090505060018160070160006101000a81548160ff0219169083151502179055508773ffffffffffffffffffffffffffffffffffffffff167f9338dd9ceef9d06add438ea6dc41001669205dd815558a5a71d9165e7a9ea419866040516106ac91906127a8565b60405180910390a25050505050505050565b600660009054906101000a900460ff1681565b600260009054906101000a900473ffffffffffffffffffffffffffffffffffffffff1673ffffffffffffffffffffffffffffffffffffffff163373ffffffffffffffffffffffffffffffffffffffff1614610761576040517f08c379a00000000000000000000000000000000000000000000000000000000081526004016107589061283c565b60405180910390fd5b60011515600660009054906101000a900460ff161515146107b7576040517f08c379a00000000000000000000000000000000000000000000000000000000081526004016107ae906123d7565b60405180910390fd5b6000600660006101000a81548160ff0219169083151502179055503373ffffffffffffffffffffffffffffffffffffffff167ffad80badabe2a40e79c19c2c2623f2f3e03644d5634797af1a12527d451a7c6460405160405180910390a2565b60035481565b60016020528060005260406000206000915090505481565b6000818154811061084557600080fd5b90600052602060002090600802016000915090508060000160009054906101000a900473ffffffffffffffffffffffffffffffffffffffff1690806001016040518060c001604052908160008201805461089e9061288b565b80601f01602080910402602001604051908101604052809291908181526020018280546108ca9061288b565b80156109175780601f106108ec57610100808354040283529160200191610917565b820191906000526020600020905b8154815290600101906020018083116108fa57829003601f168201915b505050505081526020016001820154815260200160028201805461093a9061288b565b80601f01602080910402602001604051908101604052809291908181526020018280546109669061288b565b80156109b35780601f10610988576101008083540402835291602001916109b3565b820191906000526020600020905b81548152906001019060200180831161099657829003601f168201915b50505050508152602001600382015481526020016004820180546109d69061288b565b80601f0160208091040260200160405190810160405280929190818152602001828054610a029061288b565b8015610a4f5780601f10610a2457610100808354040283529160200191610a4f565b820191906000526020600020905b815481529060010190602001808311610a3257829003601f168201915b505050505081526020016005820160009054906101000a900460ff161515151581525050908060070160009054906101000a900460ff16905083565b60606000808054905067ffffffffffffffff811115610aad57610aac611d55565b5b604051908082528060200260200182016040528015610adb5781602001602082028036833780820191505090505b50905060005b600080549050811015610b945760008181548110610b0257610b01612740565b5b906000526020600020906008020160000160009054906101000a900473ffffffffffffffffffffffffffffffffffffffff16828281518110610b4757610b46612740565b5b602002602001019073ffffffffffffffffffffffffffffffffffffffff16908173ffffffffffffffffffffffffffffffffffffffff16815250508080610b8c906128bc565b915050610ae1565b508091505090565b610ba4611b0f565b565b60011515600660009054906101000a900460ff16151514610bfc576040517f08c379a0000000000000000000000000000000000000000000000000000000008152600401610bf3906123d7565b60405180910390fd5b60035442118015610c0f57506004544211155b610c4e576040517f08c379a0000000000000000000000000000000000000000000000000000000008152600401610c4590612976565b60405180910390fd5b610c56611b0f565b600660009054906101000a900460ff16610ca5576040517f08c379a0000000000000000000000000000000000000000000000000000000008152600401610c9c906123d7565b60405180910390fd5b8273ffffffffffffffffffffffffffffffffffffffff163373ffffffffffffffffffffffffffffffffffffffff1614610d13576040517f08c379a0000000000000000000000000000000000000000000000000000000008152600401610d0a90612a08565b60405180910390fd5b6000600160008573ffffffffffffffffffffffffffffffffffffffff1673ffffffffffffffffffffffffffffffffffffffff16815260200190815260200160002054905060008111610d9a576040517f08c379a0000000000000000000000000000000000000000000000000000000008152600401610d91906125b3565b60405180910390fd5b600080600183610daa919061270c565b81548110610dbb57610dba612740565b5b906000526020600020906008020190506000816001019050600285604051602001610de6919061260f565b604051602081830303815290604052604051610e02919061266d565b602060405180830381855afa158015610e1f573d6000803e3d6000fd5b5050506040513d601f19601f82011682018060405250810190610e4291906126b0565b600282600001604051602001610e589190612abc565b604051602081830303815290604052604051610e74919061266d565b602060405180830381855afa158015610e91573d6000803e3d6000fd5b5050506040513d601f19601f82011682018060405250810190610eb491906126b0565b14610ef4576040517f08c379a0000000000000000000000000000000000000000000000000000000008152600401610eeb90612b45565b60405180910390fd5b8060050160009054906101000a900460ff1615610f46576040517f08c379a0000000000000000000000000000000000000000000000000000000008152600401610f3d90612bb1565b60405180910390fd5b6000816003015490506000600286604051602001610f64919061260f565b604051602081830303815290604052604051610f80919061266d565b602060405180830381855afa158015610f9d573d6000803e3d6000fd5b5050506040513d601f19601f82011682018060405250810190610fc091906126b0565b9050818114611004576040517f08c379a0000000000000000000000000000000000000000000000000000000008152600401610ffb90612c43565b60405180910390fd5b8583600401908051906020019061101c929190611bb4565b5060018360050160006101000a81548160ff0219169083151502179055508773ffffffffffffffffffffffffffffffffffffffff167f2aca81a52202243918cbaf0115a278c10bd6e8945736c05e6a32ecac73860cf88888604051611082929190612c63565b60405180910390a25050505050505050565b60045481565b60011515600660009054906101000a900460ff161515146110f0576040517f08c379a00000000000000000000000000000000000000000000000000000000081526004016110e7906123d7565b60405180910390fd5b6004544211801561110357506005544211155b611142576040517f08c379a000000000000000000000000000000000000000000000000000000000815260040161113990612ce6565b60405180910390fd5b600260009054906101000a900473ffffffffffffffffffffffffffffffffffffffff1673ffffffffffffffffffffffffffffffffffffffff163373ffffffffffffffffffffffffffffffffffffffff16146111d2576040517f08c379a00000000000000000000000000000000000000000000000000000000081526004016111c99061283c565b60405180910390fd5b6111da611b0f565b600660009054906101000a900460ff16611229576040517f08c379a0000000000000000000000000000000000000000000000000000000008152600401611220906123d7565b60405180910390fd5b60045442101561126e576040517f08c379a000000000000000000000000000000000000000000000000000000000815260040161126590612d78565b60405180910390fd5b6000600160008373ffffffffffffffffffffffffffffffffffffffff1673ffffffffffffffffffffffffffffffffffffffff168152602001908152602001600020549050600081116112f5576040517f08c379a00000000000000000000000000000000000000000000000000000000081526004016112ec906125b3565b60405180910390fd5b600080600183611305919061270c565b8154811061131657611315612740565b5b906000526020600020906008020190506000816001016040518060c00160405290816000820180546113479061288b565b80601f01602080910402602001604051908101604052809291908181526020018280546113739061288b565b80156113c05780601f10611395576101008083540402835291602001916113c0565b820191906000526020600020905b8154815290600101906020018083116113a357829003601f168201915b50505050508152602001600182015481526020016002820180546113e39061288b565b80601f016020809104026020016040519081016040528092919081815260200182805461140f9061288b565b801561145c5780601f106114315761010080835404028352916020019161145c565b820191906000526020600020905b81548152906001019060200180831161143f57829003601f168201915b505050505081526020016003820154815260200160048201805461147f9061288b565b80601f01602080910402602001604051908101604052809291908181526020018280546114ab9061288b565b80156114f85780601f106114cd576101008083540402835291602001916114f8565b820191906000526020600020905b8154815290600101906020018083116114db57829003601f168201915b505050505081526020016005820160009054906101000a900460ff161515151581525050905083600660016101000a81548173ffffffffffffffffffffffffffffffffffffffff021916908373ffffffffffffffffffffffffffffffffffffffff1602179055506000600660006101000a81548160ff0219169083151502179055508373ffffffffffffffffffffffffffffffffffffffff167fe8298480ab53c6e618d8b9bb22af62e899ab01bb56366823a197878b0b70d20282600001516040516115c491906127a8565b60405180910390a250505050565b6115da611c3a565b6000600160008473ffffffffffffffffffffffffffffffffffffffff1673ffffffffffffffffffffffffffffffffffffffff16815260200190815260200160002054905060008111611661576040517f08c379a0000000000000000000000000000000000000000000000000000000008152600401611658906125b3565b60405180910390fd5b6000600182611670919061270c565b8154811061168157611680612740565b5b90600052602060002090600802016001016040518060c00160405290816000820180546116ad9061288b565b80601f01602080910402602001604051908101604052809291908181526020018280546116d99061288b565b80156117265780601f106116fb57610100808354040283529160200191611726565b820191906000526020600020905b81548152906001019060200180831161170957829003601f168201915b50505050508152602001600182015481526020016002820180546117499061288b565b80601f01602080910402602001604051908101604052809291908181526020018280546117759061288b565b80156117c25780601f10611797576101008083540402835291602001916117c2565b820191906000526020600020905b8154815290600101906020018083116117a557829003601f168201915b50505050508152602001600382015481526020016004820180546117e59061288b565b80601f01602080910402602001604051908101604052809291908181526020018280546118119061288b565b801561185e5780601f106118335761010080835404028352916020019161185e565b820191906000526020600020905b81548152906001019060200180831161184157829003601f168201915b505050505081526020016005820160009054906101000a900460ff161515151581525050915050919050565b600260009054906101000a900473ffffffffffffffffffffffffffffffffffffffff1681565b60011515600660009054906101000a900460ff16151514611906576040517f08c379a00000000000000000000000000000000000000000000000000000000081526004016118fd906123d7565b60405180910390fd5b60035442111561194b576040517f08c379a000000000000000000000000000000000000000000000000000000000815260040161194290612469565b60405180910390fd5b611953611b0f565b600660009054906101000a900460ff166119a2576040517f08c379a0000000000000000000000000000000000000000000000000000000008152600401611999906123d7565b60405180910390fd5b6000600160008373ffffffffffffffffffffffffffffffffffffffff1673ffffffffffffffffffffffffffffffffffffffff1681526020019081526020016000205414611a24576040517f08c379a0000000000000000000000000000000000000000000000000000000008152600401611a1b90612e0a565b60405180910390fd5b6001600080549050611a369190612e2a565b600160008373ffffffffffffffffffffffffffffffffffffffff1673ffffffffffffffffffffffffffffffffffffffff168152602001908152602001600020819055506000806001816001815401808255809150500390600052602060002090600802019050818160000160006101000a81548173ffffffffffffffffffffffffffffffffffffffff021916908373ffffffffffffffffffffffffffffffffffffffff1602179055505050565b600660019054906101000a900473ffffffffffffffffffffffffffffffffffffffff1681565b60055481565b60055442118015611b2c5750600660009054906101000a900460ff165b15611bb2576000600660006101000a81548160ff021916908315150217905550600260009054906101000a900473ffffffffffffffffffffffffffffffffffffffff1673ffffffffffffffffffffffffffffffffffffffff167ffad80badabe2a40e79c19c2c2623f2f3e03644d5634797af1a12527d451a7c6460405160405180910390a25b565b828054611bc09061288b565b90600052602060002090601f016020900481019282611be25760008555611c29565b82601f10611bfb57805160ff1916838001178555611c29565b82800160010185558215611c29579182015b82811115611c28578251825591602001919060010190611c0d565b5b509050611c369190611c75565b5090565b6040518060c0016040528060608152602001600081526020016060815260200160008019168152602001606081526020016000151581525090565b5b80821115611c8e576000816000905550600101611c76565b5090565b6000604051905090565b600080fd5b600080fd5b600073ffffffffffffffffffffffffffffffffffffffff82169050919050565b6000611cd182611ca6565b9050919050565b611ce181611cc6565b8114611cec57600080fd5b50565b600081359050611cfe81611cd8565b92915050565b6000819050919050565b611d1781611d04565b8114611d2257600080fd5b50565b600081359050611d3481611d0e565b92915050565b600080fd5b600080fd5b6000601f19601f8301169050919050565b7f4e487b7100000000000000000000000000000000000000000000000000000000600052604160045260246000fd5b611d8d82611d44565b810181811067ffffffffffffffff82111715611dac57611dab611d55565b5b80604052505050565b6000611dbf611c92565b9050611dcb8282611d84565b919050565b600067ffffffffffffffff821115611deb57611dea611d55565b5b611df482611d44565b9050602081019050919050565b82818337600083830152505050565b6000611e23611e1e84611dd0565b611db5565b905082815260208101848484011115611e3f57611e3e611d3f565b5b611e4a848285611e01565b509392505050565b600082601f830112611e6757611e66611d3a565b5b8135611e77848260208601611e10565b91505092915050565b600080600080600060a08688031215611e9c57611e9b611c9c565b5b6000611eaa88828901611cef565b9550506020611ebb88828901611d25565b945050604086013567ffffffffffffffff811115611edc57611edb611ca1565b5b611ee888828901611e52565b935050606086013567ffffffffffffffff811115611f0957611f08611ca1565b5b611f1588828901611e52565b925050608086013567ffffffffffffffff811115611f3657611f35611ca1565b5b611f4288828901611e52565b9150509295509295909350565b60008115159050919050565b611f6481611f4f565b82525050565b6000602082019050611f7f6000830184611f5b565b92915050565b611f8e81611d04565b82525050565b6000602082019050611fa96000830184611f85565b92915050565b600060208284031215611fc557611fc4611c9c565b5b6000611fd384828501611cef565b91505092915050565b600060208284031215611ff257611ff1611c9c565b5b600061200084828501611d25565b91505092915050565b61201281611cc6565b82525050565b600081519050919050565b600082825260208201905092915050565b60005b83811015612052578082015181840152602081019050612037565b83811115612061576000848401525b50505050565b600061207282612018565b61207c8185612023565b935061208c818560208601612034565b61209581611d44565b840191505092915050565b6120a981611d04565b82525050565b6000819050919050565b6120c2816120af565b82525050565b6120d181611f4f565b82525050565b600060c08301600083015184820360008601526120f48282612067565b915050602083015161210960208601826120a0565b50604083015184820360408601526121218282612067565b915050606083015161213660608601826120b9565b506080830151848203608086015261214e8282612067565b91505060a083015161216360a08601826120c8565b508091505092915050565b60006060820190506121836000830186612009565b818103602083015261219581856120d7565b90506121a46040830184611f5b565b949350505050565b600081519050919050565b600082825260208201905092915050565b6000819050602082019050919050565b6121e181611cc6565b82525050565b60006121f383836121d8565b60208301905092915050565b6000602082019050919050565b6000612217826121ac565b61222181856121b7565b935061222c836121c8565b8060005b8381101561225d57815161224488826121e7565b975061224f836121ff565b925050600181019050612230565b5085935050505092915050565b60006020820190508181036000830152612284818461220c565b905092915050565b6000806000606084860312156122a5576122a4611c9c565b5b60006122b386828701611cef565b935050602084013567ffffffffffffffff8111156122d4576122d3611ca1565b5b6122e086828701611e52565b925050604084013567ffffffffffffffff81111561230157612300611ca1565b5b61230d86828701611e52565b9150509250925092565b6000602082019050818103600083015261233181846120d7565b905092915050565b600060208201905061234e6000830184612009565b92915050565b600082825260208201905092915050565b7f4c696369746163696f6e2063616e63656c616461206f2066696e616c697a616460008201527f6100000000000000000000000000000000000000000000000000000000000000602082015250565b60006123c1602183612354565b91506123cc82612365565b604082019050919050565b600060208201905081810360008301526123f0816123b4565b9050919050565b7f5469656d706f2064652070726573656e746163696f6e2066696e616c697a616460008201527f6f00000000000000000000000000000000000000000000000000000000000000602082015250565b6000612453602183612354565b915061245e826123f7565b604082019050919050565b6000602082019050818103600083015261248281612446565b9050919050565b7f536f6c6f2070756564652061677265676172206f2061637475616c697a61722060008201527f756e612070726f70756573746120656c206475656e6f206465206c61206d697360208201527f6d61000000000000000000000000000000000000000000000000000000000000604082015250565b600061250b604283612354565b915061251682612489565b606082019050919050565b6000602082019050818103600083015261253a816124fe565b9050919050565b7f4c6120646972656363696f6e2064656c207061727469636970616e7465206e6f60008201527f2065737461207265676973747261646100000000000000000000000000000000602082015250565b600061259d603083612354565b91506125a882612541565b604082019050919050565b600060208201905081810360008301526125cc81612590565b9050919050565b600081905092915050565b60006125e982612018565b6125f381856125d3565b9350612603818560208601612034565b80840191505092915050565b600061261b82846125de565b915081905092915050565b600081519050919050565b600081905092915050565b600061264782612626565b6126518185612631565b9350612661818560208601612034565b80840191505092915050565b6000612679828461263c565b915081905092915050565b61268d816120af565b811461269857600080fd5b50565b6000815190506126aa81612684565b92915050565b6000602082840312156126c6576126c5611c9c565b5b60006126d48482850161269b565b91505092915050565b7f4e487b7100000000000000000000000000000000000000000000000000000000600052601160045260246000fd5b600061271782611d04565b915061272283611d04565b925082821015612735576127346126dd565b5b828203905092915050565b7f4e487b7100000000000000000000000000000000000000000000000000000000600052603260045260246000fd5b600061277a82612018565b6127848185612354565b9350612794818560208601612034565b61279d81611d44565b840191505092915050565b600060208201905081810360008301526127c2818461276f565b905092915050565b7f536f6c6f20656c206c6963697461646f7220707565646520656a65637574617260008201527f206573746120616363696f6e0000000000000000000000000000000000000000602082015250565b6000612826602c83612354565b9150612831826127ca565b604082019050919050565b6000602082019050818103600083015261285581612819565b9050919050565b7f4e487b7100000000000000000000000000000000000000000000000000000000600052602260045260246000fd5b600060028204905060018216806128a357607f821691505b6020821081036128b6576128b561285c565b5b50919050565b60006128c782611d04565b91507fffffffffffffffffffffffffffffffffffffffffffffffffffffffffffffffff82036128f9576128f86126dd565b5b600182019050919050565b7f46756572612064656c20706572696f646f20646520726576656c6163696f6e2060008201527f646520646f63756d656e746f7300000000000000000000000000000000000000602082015250565b6000612960602d83612354565b915061296b82612904565b604082019050919050565b6000602082019050818103600083015261298f81612953565b9050919050565b7f536f6c6f20707565646520726576656c617220656c20646f63756d656e746f2060008201527f656c206475656e6f206465206c612070726f7075657374610000000000000000602082015250565b60006129f2603883612354565b91506129fd82612996565b604082019050919050565b60006020820190508181036000830152612a21816129e5565b9050919050565b60008190508160005260206000209050919050565b60008154612a4a8161288b565b612a5481866125d3565b94506001821660008114612a6f5760018114612a8057612ab3565b60ff19831686528186019350612ab3565b612a8985612a28565b60005b83811015612aab57815481890152600182019150602081019050612a8c565b838801955050505b50505092915050565b6000612ac88284612a3d565b915081905092915050565b7f456c206e6f6d627265206465206c612070726f707565737461206e6f20636f6960008201527f6e63696465000000000000000000000000000000000000000000000000000000602082015250565b6000612b2f602583612354565b9150612b3a82612ad3565b604082019050919050565b60006020820190508181036000830152612b5e81612b22565b9050919050565b7f456c20646f63756d656e746f207961206861207369646f20726576656c61646f600082015250565b6000612b9b602083612354565b9150612ba682612b65565b602082019050919050565b60006020820190508181036000830152612bca81612b8e565b9050919050565b7f456c20646f63756d656e746f206e6f20636f696e6369646520636f6e20656c2060008201527f6861736800000000000000000000000000000000000000000000000000000000602082015250565b6000612c2d602483612354565b9150612c3882612bd1565b604082019050919050565b60006020820190508181036000830152612c5c81612c20565b9050919050565b60006040820190508181036000830152612c7d818561276f565b90508181036020830152612c91818461276f565b90509392505050565b7f46756572612064656c20706572696f646f206465206576616c756163696f6e00600082015250565b6000612cd0601f83612354565b9150612cdb82612c9a565b602082019050919050565b60006020820190508181036000830152612cff81612cc3565b9050919050565b7f4c6120726576656c6163696f6e20646520646f63756d656e746f732061756e2060008201527f6e6f2068612066696e616c697a61646f00000000000000000000000000000000602082015250565b6000612d62603083612354565b9150612d6d82612d06565b604082019050919050565b60006020820190508181036000830152612d9181612d55565b9050919050565b7f4c6120646972656363696f6e2064656c207061727469636970616e746520796160008201527f2065737461207265676973747261646100000000000000000000000000000000602082015250565b6000612df4603083612354565b9150612dff82612d98565b604082019050919050565b60006020820190508181036000830152612e2381612de7565b9050919050565b6000612e3582611d04565b9150612e4083611d04565b9250827fffffffffffffffffffffffffffffffffffffffffffffffffffffffffffffffff03821115612e7557612e746126dd565b5b82820190509291505056fea26469706673582212203111291decd64631843daf7a04a58f4cc2c56d3cd377032c641b3d9a6b46f6be64736f6c634300080d0033a2646970667358221220586a94d71c39720971f0d2921b9c8812214708e812cfbdebef30794b536b15f864736f6c634300080d003360806040523480156200001157600080fd5b506040516200165438038062001654833981810160405281019062000037919062000333565b806000806101000a81548173ffffffffffffffffffffffffffffffffffffffff021916908373ffffffffffffffffffffffffffffffffffffffff16021790555060405180606001604052806040518060400160405280600581526020017f4f776e6572000000000000000000000000000000000000000000000000000000815250815260200160011515815260200160011515815250600160008060009054906101000a900473ffffffffffffffffffffffffffffffffffffffff1673ffffffffffffffffffffffffffffffffffffffff1673ffffffffffffffffffffffffffffffffffffffff16815260200190815260200160002060008201518160000190805190602001906200014b92919062000219565b5060208201518160010160006101000a81548160ff02191690831515021790555060408201518160010160016101000a81548160ff021916908315150217905550905050600260008054906101000a900473ffffffffffffffffffffffffffffffffffffffff169080600181540180825580915050600190039060005260206000200160009091909190916101000a81548173ffffffffffffffffffffffffffffffffffffffff021916908373ffffffffffffffffffffffffffffffffffffffff16021790555050620003c9565b828054620002279062000394565b90600052602060002090601f0160209004810192826200024b576000855562000297565b82601f106200026657805160ff191683800117855562000297565b8280016001018555821562000297579182015b828111156200029657825182559160200191906001019062000279565b5b509050620002a69190620002aa565b5090565b5b80821115620002c5576000816000905550600101620002ab565b5090565b600080fd5b600073ffffffffffffffffffffffffffffffffffffffff82169050919050565b6000620002fb82620002ce565b9050919050565b6200030d81620002ee565b81146200031957600080fd5b50565b6000815190506200032d8162000302565b92915050565b6000602082840312156200034c576200034b620002c9565b5b60006200035c848285016200031c565b91505092915050565b7f4e487b7100000000000000000000000000000000000000000000000000000000600052602260045260246000fd5b60006002820490506001821680620003ad57607f821691505b602082108103620003c357620003c262000365565b5b50919050565b61127b80620003d96000396000f3fe608060405234801561001057600080fd5b506004361061009e5760003560e01c8063502c9bd511610066578063502c9bd5146101575780636f77926b146101875780638da5cb5b146101b8578063a87430ba146101d6578063e2842d79146102085761009e565b80630ea126f9146100a3578063163f7522146100bf57806324d7806c146100ef5780632d3456701461011f578063472905ca1461013b575b600080fd5b6100bd60048036038101906100b89190610d59565b610226565b005b6100d960048036038101906100d49190610db5565b6103dd565b6040516100e69190610dfd565b60405180910390f35b61010960048036038101906101049190610db5565b610436565b6040516101169190610dfd565b60405180910390f35b61013960048036038101906101349190610db5565b61048f565b005b61015560048036038101906101509190610db5565b61060a565b005b610171600480360381019061016c9190610e4e565b610784565b60405161017e9190610e8a565b60405180910390f35b6101a1600480360381019061019c9190610db5565b6107c3565b6040516101af929190610f2d565b60405180910390f35b6101c0610980565b6040516101cd9190610e8a565b60405180910390f35b6101f060048036038101906101eb9190610db5565b6109a4565b6040516101ff93929190610f5d565b60405180910390f35b610210610a70565b60405161021d9190611059565b60405180910390f35b600160008373ffffffffffffffffffffffffffffffffffffffff1673ffffffffffffffffffffffffffffffffffffffff16815260200190815260200160002060010160009054906101000a900460ff16156102b6576040517f08c379a00000000000000000000000000000000000000000000000000000000081526004016102ad906110c7565b60405180910390fd5b604051806060016040528082815260200160011515815260200160001515815250600160008473ffffffffffffffffffffffffffffffffffffffff1673ffffffffffffffffffffffffffffffffffffffff1681526020019081526020016000206000820151816000019080519060200190610332929190610afe565b5060208201518160010160006101000a81548160ff02191690831515021790555060408201518160010160016101000a81548160ff0219169083151502179055509050506002829080600181540180825580915050600190039060005260206000200160009091909190916101000a81548173ffffffffffffffffffffffffffffffffffffffff021916908373ffffffffffffffffffffffffffffffffffffffff1602179055505050565b6000600160008373ffffffffffffffffffffffffffffffffffffffff1673ffffffffffffffffffffffffffffffffffffffff16815260200190815260200160002060010160009054906101000a900460ff169050919050565b6000600160008373ffffffffffffffffffffffffffffffffffffffff1673ffffffffffffffffffffffffffffffffffffffff16815260200190815260200160002060010160019054906101000a900460ff169050919050565b60008054906101000a900473ffffffffffffffffffffffffffffffffffffffff1673ffffffffffffffffffffffffffffffffffffffff163373ffffffffffffffffffffffffffffffffffffffff161461051d576040517f08c379a000000000000000000000000000000000000000000000000000000000815260040161051490611159565b60405180910390fd5b600160008273ffffffffffffffffffffffffffffffffffffffff1673ffffffffffffffffffffffffffffffffffffffff16815260200190815260200160002060010160009054906101000a900460ff166105ac576040517f08c379a00000000000000000000000000000000000000000000000000000000081526004016105a3906111c5565b60405180910390fd5b6000600160008373ffffffffffffffffffffffffffffffffffffffff1673ffffffffffffffffffffffffffffffffffffffff16815260200190815260200160002060010160016101000a81548160ff02191690831515021790555050565b60008054906101000a900473ffffffffffffffffffffffffffffffffffffffff1673ffffffffffffffffffffffffffffffffffffffff163373ffffffffffffffffffffffffffffffffffffffff1614610698576040517f08c379a000000000000000000000000000000000000000000000000000000000815260040161068f90611159565b60405180910390fd5b600160008273ffffffffffffffffffffffffffffffffffffffff1673ffffffffffffffffffffffffffffffffffffffff16815260200190815260200160002060010160009054906101000a900460ff16610727576040517f08c379a000000000000000000000000000000000000000000000000000000000815260040161071e906111c5565b60405180910390fd5b60018060008373ffffffffffffffffffffffffffffffffffffffff1673ffffffffffffffffffffffffffffffffffffffff16815260200190815260200160002060010160016101000a81548160ff02191690831515021790555050565b6002818154811061079457600080fd5b906000526020600020016000915054906101000a900473ffffffffffffffffffffffffffffffffffffffff1681565b60606000600160008473ffffffffffffffffffffffffffffffffffffffff1673ffffffffffffffffffffffffffffffffffffffff16815260200190815260200160002060010160009054906101000a900460ff16610856576040517f08c379a000000000000000000000000000000000000000000000000000000000815260040161084d906111c5565b60405180910390fd5b6000600160008573ffffffffffffffffffffffffffffffffffffffff1673ffffffffffffffffffffffffffffffffffffffff1681526020019081526020016000206040518060600160405290816000820180546108b290611214565b80601f01602080910402602001604051908101604052809291908181526020018280546108de90611214565b801561092b5780601f106109005761010080835404028352916020019161092b565b820191906000526020600020905b81548152906001019060200180831161090e57829003601f168201915b505050505081526020016001820160009054906101000a900460ff161515151581526020016001820160019054906101000a900460ff1615151515815250509050806000015181604001519250925050915091565b60008054906101000a900473ffffffffffffffffffffffffffffffffffffffff1681565b60016020528060005260406000206000915090508060000180546109c790611214565b80601f01602080910402602001604051908101604052809291908181526020018280546109f390611214565b8015610a405780601f10610a1557610100808354040283529160200191610a40565b820191906000526020600020905b815481529060010190602001808311610a2357829003601f168201915b5050505050908060010160009054906101000a900460ff16908060010160019054906101000a900460ff16905083565b60606002805480602002602001604051908101604052809291908181526020018280548015610af457602002820191906000526020600020905b8160009054906101000a900473ffffffffffffffffffffffffffffffffffffffff1673ffffffffffffffffffffffffffffffffffffffff1681526020019060010190808311610aaa575b5050505050905090565b828054610b0a90611214565b90600052602060002090601f016020900481019282610b2c5760008555610b73565b82601f10610b4557805160ff1916838001178555610b73565b82800160010185558215610b73579182015b82811115610b72578251825591602001919060010190610b57565b5b509050610b809190610b84565b5090565b5b80821115610b9d576000816000905550600101610b85565b5090565b6000604051905090565b600080fd5b600080fd5b600073ffffffffffffffffffffffffffffffffffffffff82169050919050565b6000610be082610bb5565b9050919050565b610bf081610bd5565b8114610bfb57600080fd5b50565b600081359050610c0d81610be7565b92915050565b600080fd5b600080fd5b6000601f19601f8301169050919050565b7f4e487b7100000000000000000000000000000000000000000000000000000000600052604160045260246000fd5b610c6682610c1d565b810181811067ffffffffffffffff82111715610c8557610c84610c2e565b5b80604052505050565b6000610c98610ba1565b9050610ca48282610c5d565b919050565b600067ffffffffffffffff821115610cc457610cc3610c2e565b5b610ccd82610c1d565b9050602081019050919050565b82818337600083830152505050565b6000610cfc610cf784610ca9565b610c8e565b905082815260208101848484011115610d1857610d17610c18565b5b610d23848285610cda565b509392505050565b600082601f830112610d4057610d3f610c13565b5b8135610d50848260208601610ce9565b91505092915050565b60008060408385031215610d7057610d6f610bab565b5b6000610d7e85828601610bfe565b925050602083013567ffffffffffffffff811115610d9f57610d9e610bb0565b5b610dab85828601610d2b565b9150509250929050565b600060208284031215610dcb57610dca610bab565b5b6000610dd984828501610bfe565b91505092915050565b60008115159050919050565b610df781610de2565b82525050565b6000602082019050610e126000830184610dee565b92915050565b6000819050919050565b610e2b81610e18565b8114610e3657600080fd5b50565b600081359050610e4881610e22565b92915050565b600060208284031215610e6457610e63610bab565b5b6000610e7284828501610e39565b91505092915050565b610e8481610bd5565b82525050565b6000602082019050610e9f6000830184610e7b565b92915050565b600081519050919050565b600082825260208201905092915050565b60005b83811015610edf578082015181840152602081019050610ec4565b83811115610eee576000848401525b50505050565b6000610eff82610ea5565b610f098185610eb0565b9350610f19818560208601610ec1565b610f2281610c1d565b840191505092915050565b60006040820190508181036000830152610f478185610ef4565b9050610f566020830184610dee565b9392505050565b60006060820190508181036000830152610f778186610ef4565b9050610f866020830185610dee565b610f936040830184610dee565b949350505050565b600081519050919050565b600082825260208201905092915050565b6000819050602082019050919050565b610fd081610bd5565b82525050565b6000610fe28383610fc7565b60208301905092915050565b6000602082019050919050565b600061100682610f9b565b6110108185610fa6565b935061101b83610fb7565b8060005b8381101561104c5781516110338882610fd6565b975061103e83610fee565b92505060018101905061101f565b5085935050505092915050565b600060208201905081810360008301526110738184610ffb565b905092915050565b7f5573657220616c72656164792072656769737465726564000000000000000000600082015250565b60006110b1601783610eb0565b91506110bc8261107b565b602082019050919050565b600060208201905081810360008301526110e0816110a4565b9050919050565b7f4f6e6c79206f776e65722063616e20706572666f726d2074686973206163746960008201527f6f6e000000000000000000000000000000000000000000000000000000000000602082015250565b6000611143602283610eb0565b915061114e826110e7565b604082019050919050565b6000602082019050818103600083015261117281611136565b9050919050565b7f55736572206e6f74207265676973746572656400000000000000000000000000600082015250565b60006111af601383610eb0565b91506111ba82611179565b602082019050919050565b600060208201905081810360008301526111de816111a2565b9050919050565b7f4e487b7100000000000000000000000000000000000000000000000000000000600052602260045260246000fd5b6000600282049050600182168061122c57607f821691505b60208210810361123f5761123e6111e5565b5b5091905056fea2646970667358221220cf5a62b6ffc6ce4f2d91dca4e20c3209840f3c155f1227688288ba1744a9f89f64736f6c634300080d0033608060405234801561001057600080fd5b5061027d806100206000396000f3fe608060405234801561001057600080fd5b506004361061002b5760003560e01c8063a9059cbb14610030575b600080fd5b61004a6004803603810190610045919061018a565b61004c565b005b803373ffffffffffffffffffffffffffffffffffffffff163110156100a6576040517f08c379a000000000000000000000000000000000000000000000000000000000815260040161009d90610227565b60405180910390fd5b8173ffffffffffffffffffffffffffffffffffffffff166108fc829081150290604051600060405180830381858888f193505050501580156100ec573d6000803e3d6000fd5b505050565b600080fd5b600073ffffffffffffffffffffffffffffffffffffffff82169050919050565b6000610121826100f6565b9050919050565b61013181610116565b811461013c57600080fd5b50565b60008135905061014e81610128565b92915050565b6000819050919050565b61016781610154565b811461017257600080fd5b50565b6000813590506101848161015e565b92915050565b600080604083850312156101a1576101a06100f1565b5b60006101af8582860161013f565b92505060206101c085828601610175565b9150509250929050565b600082825260208201905092915050565b7f466f6e646f7320696e737566696369656e746573000000000000000000000000600082015250565b60006102116014836101ca565b915061021c826101db565b602082019050919050565b6000602082019050818103600083015261024081610204565b905091905056fea2646970667358221220dfc82ec828825c8e548efca25c88122dc93e829e3abb4224df481f85af6d4b0964736f6c634300080d0033",
  "immutableReferences": {},
  "source": "// SPDX-License-Identifier: MIT\r\npragma solidity ^0.8.13;\r\n\r\nimport \"./Tender.sol\";\r\nimport \"./UserManagament.sol\";\r\nimport \"./Payments.sol\";\r\n\r\ncontract TenderManagament {\r\n    address[] public tenderList;\r\n\r\n    event NuevaLicitacion(address indexed tender, address indexed licitador);\r\n    event Debug(string message, uint256 value);\r\n    event ErrorHandled(string reason);\r\n\r\n    UserManagament public userManagament;\r\n    Payments public payments;\r\n\r\n    constructor() {\r\n        userManagament = UserManagament(address(new UserManagament(msg.sender)));\r\n        payments = Payments(address(new Payments()));\r\n    }\r\n\r\n    modifier authorized() {\r\n        require(userManagament.isAdmin(msg.sender), \"Usuario no autorizado\");\r\n        _;\r\n    }\r\n    \r\n    function registrarLicitacion(uint256 _deadline, uint256 _revealTime, uint256 _evaluationTime) public authorized {\r\n        //require(_deadline >= 259200, \"Duracion de la licitacion inferior a la permitida\");\r\n        //require(_deadline <= 3024000, \"Duracion de la licitacion superior a la permitida\");\r\n\r\n        try new Tender(_deadline, _revealTime, _evaluationTime, address(payments), msg.sender) returns (Tender tender) {\r\n            tenderList.push(address(tender));\r\n            emit NuevaLicitacion(address(tender), msg.sender);\r\n            emit Debug(\"registrarLicitacion finished\", block.timestamp);\r\n        } catch Error(string memory reason) {\r\n            emit ErrorHandled(reason);\r\n        } catch (bytes memory /* lowLevelData */) {\r\n            emit ErrorHandled(\"Low-level error occurred\");\r\n        }\r\n    }\r\n\r\n    function getTenders() public view returns (address[] memory) {\r\n        return tenderList;\r\n    }\r\n}\r\n",
  "sourcePath": "c:\\Users\\david asensio\\Desktop\\proyecto tfg\\coso2\\contracts\\TenderManagament.sol",
  "compiler": {
    "name": "solc",
    "version": "0.8.13+commit.abaa5c0e.Emscripten.clang"
  },
  "schemaVersion": "3.4.16",
  "updatedAt": "2024-06-12T08:51:31.275Z",
  "networkType": "ethereum",
  "devdoc": {
    "kind": "dev",
    "methods": {},
    "version": 1
  },
  "userdoc": {
    "kind": "user",
    "methods": {},
    "version": 1
  }
}