{
  "contractName": "Tender",
  "abi": [
    {
      "inputs": [
        {
          "internalType": "uint256",
          "name": "_deadline",
          "type": "uint256"
        },
        {
          "internalType": "uint256",
          "name": "_revealTime",
          "type": "uint256"
        },
        {
          "internalType": "uint256",
          "name": "_evaluationTime",
          "type": "uint256"
        },
        {
          "internalType": "address",
          "name": "_paymentsContract",
          "type": "address"
        },
        {
          "internalType": "address",
          "name": "_licitador",
          "type": "address"
        }
      ],
      "stateMutability": "nonpayable",
      "type": "constructor"
    },
    {
      "anonymous": false,
      "inputs": [
        {
          "indexed": true,
          "internalType": "address",
          "name": "participant",
          "type": "address"
        },
        {
          "indexed": false,
          "internalType": "string",
          "name": "name",
          "type": "string"
        },
        {
          "indexed": false,
          "internalType": "string",
          "name": "realDocument",
          "type": "string"
        }
      ],
      "name": "DocumentRevealed",
      "type": "event"
    },
    {
      "anonymous": false,
      "inputs": [
        {
          "indexed": true,
          "internalType": "address",
          "name": "ganador",
          "type": "address"
        },
        {
          "indexed": false,
          "internalType": "string",
          "name": "name",
          "type": "string"
        }
      ],
      "name": "GanadorLicitacion",
      "type": "event"
    },
    {
      "anonymous": false,
      "inputs": [
        {
          "indexed": true,
          "internalType": "address",
          "name": "licitador",
          "type": "address"
        }
      ],
      "name": "LicitacionCancelada",
      "type": "event"
    },
    {
      "anonymous": false,
      "inputs": [
        {
          "indexed": true,
          "internalType": "address",
          "name": "tender",
          "type": "address"
        },
        {
          "indexed": true,
          "internalType": "address",
          "name": "licitador",
          "type": "address"
        },
        {
          "indexed": false,
          "internalType": "uint256",
          "name": "deadline",
          "type": "uint256"
        },
        {
          "indexed": false,
          "internalType": "uint256",
          "name": "revealDeadline",
          "type": "uint256"
        },
        {
          "indexed": false,
          "internalType": "uint256",
          "name": "evaluationDeadline",
          "type": "uint256"
        }
      ],
      "name": "NuevaLicitacion",
      "type": "event"
    },
    {
      "anonymous": false,
      "inputs": [
        {
          "indexed": true,
          "internalType": "address",
          "name": "participant",
          "type": "address"
        },
        {
          "indexed": false,
          "internalType": "string",
          "name": "name",
          "type": "string"
        }
      ],
      "name": "PropuestaActualizada",
      "type": "event"
    },
    {
      "inputs": [],
      "name": "active",
      "outputs": [
        {
          "internalType": "bool",
          "name": "",
          "type": "bool"
        }
      ],
      "stateMutability": "view",
      "type": "function"
    },
    {
      "inputs": [],
      "name": "deadline",
      "outputs": [
        {
          "internalType": "uint256",
          "name": "",
          "type": "uint256"
        }
      ],
      "stateMutability": "view",
      "type": "function"
    },
    {
      "inputs": [],
      "name": "evaluationDeadline",
      "outputs": [
        {
          "internalType": "uint256",
          "name": "",
          "type": "uint256"
        }
      ],
      "stateMutability": "view",
      "type": "function"
    },
    {
      "inputs": [
        {
          "internalType": "address",
          "name": "",
          "type": "address"
        }
      ],
      "name": "indexParticipant",
      "outputs": [
        {
          "internalType": "uint256",
          "name": "",
          "type": "uint256"
        }
      ],
      "stateMutability": "view",
      "type": "function"
    },
    {
      "inputs": [],
      "name": "licitador",
      "outputs": [
        {
          "internalType": "address",
          "name": "",
          "type": "address"
        }
      ],
      "stateMutability": "view",
      "type": "function"
    },
    {
      "inputs": [
        {
          "internalType": "uint256",
          "name": "",
          "type": "uint256"
        }
      ],
      "name": "participants",
      "outputs": [
        {
          "internalType": "address",
          "name": "direccion",
          "type": "address"
        },
        {
          "components": [
            {
              "internalType": "string",
              "name": "name",
              "type": "string"
            },
            {
              "internalType": "uint256",
              "name": "quantity",
              "type": "uint256"
            },
            {
              "internalType": "string",
              "name": "description",
              "type": "string"
            },
            {
              "internalType": "bytes32",
              "name": "hashDocument",
              "type": "bytes32"
            },
            {
              "internalType": "string",
              "name": "realDocument",
              "type": "string"
            },
            {
              "internalType": "bool",
              "name": "documentRevealed",
              "type": "bool"
            }
          ],
          "internalType": "struct Tender.Proposal",
          "name": "proposal",
          "type": "tuple"
        },
        {
          "internalType": "bool",
          "name": "hasProposal",
          "type": "bool"
        }
      ],
      "stateMutability": "view",
      "type": "function"
    },
    {
      "inputs": [],
      "name": "revealDeadline",
      "outputs": [
        {
          "internalType": "uint256",
          "name": "",
          "type": "uint256"
        }
      ],
      "stateMutability": "view",
      "type": "function"
    },
    {
      "inputs": [],
      "name": "winner",
      "outputs": [
        {
          "internalType": "address",
          "name": "",
          "type": "address"
        }
      ],
      "stateMutability": "view",
      "type": "function"
    },
    {
      "inputs": [
        {
          "internalType": "address",
          "name": "_direccion",
          "type": "address"
        }
      ],
      "name": "addParticipant",
      "outputs": [],
      "stateMutability": "nonpayable",
      "type": "function"
    },
    {
      "inputs": [
        {
          "internalType": "address",
          "name": "_direccion",
          "type": "address"
        },
        {
          "internalType": "uint256",
          "name": "_quantity",
          "type": "uint256"
        },
        {
          "internalType": "string",
          "name": "_description",
          "type": "string"
        },
        {
          "internalType": "string",
          "name": "_name",
          "type": "string"
        },
        {
          "internalType": "string",
          "name": "_document",
          "type": "string"
        }
      ],
      "name": "addOrUpdateProposal",
      "outputs": [],
      "stateMutability": "nonpayable",
      "type": "function"
    },
    {
      "inputs": [
        {
          "internalType": "address",
          "name": "_direccion",
          "type": "address"
        },
        {
          "internalType": "string",
          "name": "_name",
          "type": "string"
        },
        {
          "internalType": "string",
          "name": "_realDocument",
          "type": "string"
        }
      ],
      "name": "revealDocument",
      "outputs": [],
      "stateMutability": "nonpayable",
      "type": "function"
    },
    {
      "inputs": [
        {
          "internalType": "address",
          "name": "_winner",
          "type": "address"
        }
      ],
      "name": "seleccionarGanador",
      "outputs": [],
      "stateMutability": "nonpayable",
      "type": "function"
    },
    {
      "inputs": [],
      "name": "getParticipants",
      "outputs": [
        {
          "internalType": "address[]",
          "name": "",
          "type": "address[]"
        }
      ],
      "stateMutability": "view",
      "type": "function"
    },
    {
      "inputs": [
        {
          "internalType": "address",
          "name": "_direccion",
          "type": "address"
        }
      ],
      "name": "getProposalByParticipant",
      "outputs": [
        {
          "components": [
            {
              "internalType": "string",
              "name": "name",
              "type": "string"
            },
            {
              "internalType": "uint256",
              "name": "quantity",
              "type": "uint256"
            },
            {
              "internalType": "string",
              "name": "description",
              "type": "string"
            },
            {
              "internalType": "bytes32",
              "name": "hashDocument",
              "type": "bytes32"
            },
            {
              "internalType": "string",
              "name": "realDocument",
              "type": "string"
            },
            {
              "internalType": "bool",
              "name": "documentRevealed",
              "type": "bool"
            }
          ],
          "internalType": "struct Tender.Proposal",
          "name": "",
          "type": "tuple"
        }
      ],
      "stateMutability": "view",
      "type": "function"
    },
    {
      "inputs": [],
      "name": "cancelarLicitacion",
      "outputs": [],
      "stateMutability": "nonpayable",
      "type": "function"
    },
    {
      "inputs": [],
      "name": "checkAndUpdateStatus",
      "outputs": [],
      "stateMutability": "nonpayable",
      "type": "function"
    }
  ],
  "bytecode": "0x60806040523480156200001157600080fd5b506040516200327f3803806200327f833981810160405281019062000037919062000257565b80600260006101000a81548173ffffffffffffffffffffffffffffffffffffffff021916908373ffffffffffffffffffffffffffffffffffffffff16021790555084426200008691906200030e565b600381905550836003546200009c91906200030e565b60048190555082600454620000b291906200030e565b6005819055506001600660006101000a81548160ff02191690831515021790555081600760006101000a81548173ffffffffffffffffffffffffffffffffffffffff021916908373ffffffffffffffffffffffffffffffffffffffff160217905550600260009054906101000a900473ffffffffffffffffffffffffffffffffffffffff1673ffffffffffffffffffffffffffffffffffffffff163073ffffffffffffffffffffffffffffffffffffffff167fb6d0e741d83edef5176737959a01073fd2fc230e0a6d3ed578c3bbfdf8d7be126003546004546005546040516200019f939291906200037c565b60405180910390a35050505050620003b9565b600080fd5b6000819050919050565b620001cc81620001b7565b8114620001d857600080fd5b50565b600081519050620001ec81620001c1565b92915050565b600073ffffffffffffffffffffffffffffffffffffffff82169050919050565b60006200021f82620001f2565b9050919050565b620002318162000212565b81146200023d57600080fd5b50565b600081519050620002518162000226565b92915050565b600080600080600060a08688031215620002765762000275620001b2565b5b60006200028688828901620001db565b95505060206200029988828901620001db565b9450506040620002ac88828901620001db565b9350506060620002bf8882890162000240565b9250506080620002d28882890162000240565b9150509295509295909350565b7f4e487b7100000000000000000000000000000000000000000000000000000000600052601160045260246000fd5b60006200031b82620001b7565b91506200032883620001b7565b9250827fffffffffffffffffffffffffffffffffffffffffffffffffffffffffffffffff0382111562000360576200035f620002df565b5b828201905092915050565b6200037681620001b7565b82525050565b60006060820190506200039360008301866200036b565b620003a260208301856200036b565b620003b160408301846200036b565b949350505050565b612eb680620003c96000396000f3fe608060405234801561001057600080fd5b50600436106101005760003560e01c806399363f7211610097578063b9d5862911610066578063b9d5862914610277578063dfafe10f14610295578063dfbf53ae146102b1578063ecdc25aa146102cf57610100565b806399363f72146101f1578063b14b28a31461020d578063b4560fc81461022b578063b9bd2eea1461024757610100565b80633213e094116100d35780633213e0941461016757806335c1d349146101975780635aa68ac0146101c95780638f60c0e2146101e757610100565b806302d6c3141461010557806302fb0c5e1461012157806325fa61531461013f57806329dcb0cf14610149575b600080fd5b61011f600480360381019061011a9190611e80565b6102ed565b005b6101296106be565b6040516101369190611f6a565b60405180910390f35b6101476106d1565b005b610151610817565b60405161015e9190611f94565b60405180910390f35b610181600480360381019061017c9190611faf565b61081d565b60405161018e9190611f94565b60405180910390f35b6101b160048036038101906101ac9190611fdc565b610835565b6040516101c09392919061216e565b60405180910390f35b6101d1610a8b565b6040516101de919061226a565b60405180910390f35b6101ef610b9c565b005b61020b6004803603810190610206919061228c565b610ba6565b005b610215611094565b6040516102229190611f94565b60405180910390f35b61024560048036038101906102409190611faf565b61109a565b005b610261600480360381019061025c9190611faf565b6115d2565b60405161026e9190612317565b60405180910390f35b61027f61188a565b60405161028c9190612339565b60405180910390f35b6102af60048036038101906102aa9190611faf565b6118b0565b005b6102b9611ae3565b6040516102c69190612339565b60405180910390f35b6102d7611b09565b6040516102e49190611f94565b60405180910390f35b60011515600660009054906101000a900460ff16151514610343576040517f08c379a000000000000000000000000000000000000000000000000000000000815260040161033a906123d7565b60405180910390fd5b600354421115610388576040517f08c379a000000000000000000000000000000000000000000000000000000000815260040161037f90612469565b60405180910390fd5b610390611b0f565b600660009054906101000a900460ff166103df576040517f08c379a00000000000000000000000000000000000000000000000000000000081526004016103d6906123d7565b60405180910390fd5b8473ffffffffffffffffffffffffffffffffffffffff163373ffffffffffffffffffffffffffffffffffffffff161461044d576040517f08c379a000000000000000000000000000000000000000000000000000000000815260040161044490612521565b60405180910390fd5b6000600160008773ffffffffffffffffffffffffffffffffffffffff1673ffffffffffffffffffffffffffffffffffffffff168152602001908152602001600020549050600081116104d4576040517f08c379a00000000000000000000000000000000000000000000000000000000081526004016104cb906125b3565b60405180910390fd5b60006002836040516020016104e9919061260f565b604051602081830303815290604052604051610505919061266d565b602060405180830381855afa158015610522573d6000803e3d6000fd5b5050506040513d601f19601f8201168201806040525081019061054591906126b0565b9050600080600184610557919061270c565b8154811061056857610567612740565b5b906000526020600020906008020190506040518060c00160405280868152602001888152602001878152602001838152602001604051806020016040528060008152508152602001600015158152508160010160008201518160000190805190602001906105d7929190611bb4565b506020820151816001015560408201518160020190805190602001906105fe929190611bb4565b50606082015181600301556080820151816004019080519060200190610625929190611bb4565b5060a08201518160050160006101000a81548160ff02191690831515021790555090505060018160070160006101000a81548160ff0219169083151502179055508773ffffffffffffffffffffffffffffffffffffffff167f9338dd9ceef9d06add438ea6dc41001669205dd815558a5a71d9165e7a9ea419866040516106ac91906127a8565b60405180910390a25050505050505050565b600660009054906101000a900460ff1681565b600260009054906101000a900473ffffffffffffffffffffffffffffffffffffffff1673ffffffffffffffffffffffffffffffffffffffff163373ffffffffffffffffffffffffffffffffffffffff1614610761576040517f08c379a00000000000000000000000000000000000000000000000000000000081526004016107589061283c565b60405180910390fd5b60011515600660009054906101000a900460ff161515146107b7576040517f08c379a00000000000000000000000000000000000000000000000000000000081526004016107ae906123d7565b60405180910390fd5b6000600660006101000a81548160ff0219169083151502179055503373ffffffffffffffffffffffffffffffffffffffff167ffad80badabe2a40e79c19c2c2623f2f3e03644d5634797af1a12527d451a7c6460405160405180910390a2565b60035481565b60016020528060005260406000206000915090505481565b6000818154811061084557600080fd5b90600052602060002090600802016000915090508060000160009054906101000a900473ffffffffffffffffffffffffffffffffffffffff1690806001016040518060c001604052908160008201805461089e9061288b565b80601f01602080910402602001604051908101604052809291908181526020018280546108ca9061288b565b80156109175780601f106108ec57610100808354040283529160200191610917565b820191906000526020600020905b8154815290600101906020018083116108fa57829003601f168201915b505050505081526020016001820154815260200160028201805461093a9061288b565b80601f01602080910402602001604051908101604052809291908181526020018280546109669061288b565b80156109b35780601f10610988576101008083540402835291602001916109b3565b820191906000526020600020905b81548152906001019060200180831161099657829003601f168201915b50505050508152602001600382015481526020016004820180546109d69061288b565b80601f0160208091040260200160405190810160405280929190818152602001828054610a029061288b565b8015610a4f5780601f10610a2457610100808354040283529160200191610a4f565b820191906000526020600020905b815481529060010190602001808311610a3257829003601f168201915b505050505081526020016005820160009054906101000a900460ff161515151581525050908060070160009054906101000a900460ff16905083565b60606000808054905067ffffffffffffffff811115610aad57610aac611d55565b5b604051908082528060200260200182016040528015610adb5781602001602082028036833780820191505090505b50905060005b600080549050811015610b945760008181548110610b0257610b01612740565b5b906000526020600020906008020160000160009054906101000a900473ffffffffffffffffffffffffffffffffffffffff16828281518110610b4757610b46612740565b5b602002602001019073ffffffffffffffffffffffffffffffffffffffff16908173ffffffffffffffffffffffffffffffffffffffff16815250508080610b8c906128bc565b915050610ae1565b508091505090565b610ba4611b0f565b565b60011515600660009054906101000a900460ff16151514610bfc576040517f08c379a0000000000000000000000000000000000000000000000000000000008152600401610bf3906123d7565b60405180910390fd5b60035442118015610c0f57506004544211155b610c4e576040517f08c379a0000000000000000000000000000000000000000000000000000000008152600401610c4590612976565b60405180910390fd5b610c56611b0f565b600660009054906101000a900460ff16610ca5576040517f08c379a0000000000000000000000000000000000000000000000000000000008152600401610c9c906123d7565b60405180910390fd5b8273ffffffffffffffffffffffffffffffffffffffff163373ffffffffffffffffffffffffffffffffffffffff1614610d13576040517f08c379a0000000000000000000000000000000000000000000000000000000008152600401610d0a90612a08565b60405180910390fd5b6000600160008573ffffffffffffffffffffffffffffffffffffffff1673ffffffffffffffffffffffffffffffffffffffff16815260200190815260200160002054905060008111610d9a576040517f08c379a0000000000000000000000000000000000000000000000000000000008152600401610d91906125b3565b60405180910390fd5b600080600183610daa919061270c565b81548110610dbb57610dba612740565b5b906000526020600020906008020190506000816001019050600285604051602001610de6919061260f565b604051602081830303815290604052604051610e02919061266d565b602060405180830381855afa158015610e1f573d6000803e3d6000fd5b5050506040513d601f19601f82011682018060405250810190610e4291906126b0565b600282600001604051602001610e589190612abc565b604051602081830303815290604052604051610e74919061266d565b602060405180830381855afa158015610e91573d6000803e3d6000fd5b5050506040513d601f19601f82011682018060405250810190610eb491906126b0565b14610ef4576040517f08c379a0000000000000000000000000000000000000000000000000000000008152600401610eeb90612b45565b60405180910390fd5b8060050160009054906101000a900460ff1615610f46576040517f08c379a0000000000000000000000000000000000000000000000000000000008152600401610f3d90612bb1565b60405180910390fd5b6000816003015490506000600286604051602001610f64919061260f565b604051602081830303815290604052604051610f80919061266d565b602060405180830381855afa158015610f9d573d6000803e3d6000fd5b5050506040513d601f19601f82011682018060405250810190610fc091906126b0565b9050818114611004576040517f08c379a0000000000000000000000000000000000000000000000000000000008152600401610ffb90612c43565b60405180910390fd5b8583600401908051906020019061101c929190611bb4565b5060018360050160006101000a81548160ff0219169083151502179055508773ffffffffffffffffffffffffffffffffffffffff167f2aca81a52202243918cbaf0115a278c10bd6e8945736c05e6a32ecac73860cf88888604051611082929190612c63565b60405180910390a25050505050505050565b60045481565b60011515600660009054906101000a900460ff161515146110f0576040517f08c379a00000000000000000000000000000000000000000000000000000000081526004016110e7906123d7565b60405180910390fd5b6004544211801561110357506005544211155b611142576040517f08c379a000000000000000000000000000000000000000000000000000000000815260040161113990612ce6565b60405180910390fd5b600260009054906101000a900473ffffffffffffffffffffffffffffffffffffffff1673ffffffffffffffffffffffffffffffffffffffff163373ffffffffffffffffffffffffffffffffffffffff16146111d2576040517f08c379a00000000000000000000000000000000000000000000000000000000081526004016111c99061283c565b60405180910390fd5b6111da611b0f565b600660009054906101000a900460ff16611229576040517f08c379a0000000000000000000000000000000000000000000000000000000008152600401611220906123d7565b60405180910390fd5b60045442101561126e576040517f08c379a000000000000000000000000000000000000000000000000000000000815260040161126590612d78565b60405180910390fd5b6000600160008373ffffffffffffffffffffffffffffffffffffffff1673ffffffffffffffffffffffffffffffffffffffff168152602001908152602001600020549050600081116112f5576040517f08c379a00000000000000000000000000000000000000000000000000000000081526004016112ec906125b3565b60405180910390fd5b600080600183611305919061270c565b8154811061131657611315612740565b5b906000526020600020906008020190506000816001016040518060c00160405290816000820180546113479061288b565b80601f01602080910402602001604051908101604052809291908181526020018280546113739061288b565b80156113c05780601f10611395576101008083540402835291602001916113c0565b820191906000526020600020905b8154815290600101906020018083116113a357829003601f168201915b50505050508152602001600182015481526020016002820180546113e39061288b565b80601f016020809104026020016040519081016040528092919081815260200182805461140f9061288b565b801561145c5780601f106114315761010080835404028352916020019161145c565b820191906000526020600020905b81548152906001019060200180831161143f57829003601f168201915b505050505081526020016003820154815260200160048201805461147f9061288b565b80601f01602080910402602001604051908101604052809291908181526020018280546114ab9061288b565b80156114f85780601f106114cd576101008083540402835291602001916114f8565b820191906000526020600020905b8154815290600101906020018083116114db57829003601f168201915b505050505081526020016005820160009054906101000a900460ff161515151581525050905083600660016101000a81548173ffffffffffffffffffffffffffffffffffffffff021916908373ffffffffffffffffffffffffffffffffffffffff1602179055506000600660006101000a81548160ff0219169083151502179055508373ffffffffffffffffffffffffffffffffffffffff167fe8298480ab53c6e618d8b9bb22af62e899ab01bb56366823a197878b0b70d20282600001516040516115c491906127a8565b60405180910390a250505050565b6115da611c3a565b6000600160008473ffffffffffffffffffffffffffffffffffffffff1673ffffffffffffffffffffffffffffffffffffffff16815260200190815260200160002054905060008111611661576040517f08c379a0000000000000000000000000000000000000000000000000000000008152600401611658906125b3565b60405180910390fd5b6000600182611670919061270c565b8154811061168157611680612740565b5b90600052602060002090600802016001016040518060c00160405290816000820180546116ad9061288b565b80601f01602080910402602001604051908101604052809291908181526020018280546116d99061288b565b80156117265780601f106116fb57610100808354040283529160200191611726565b820191906000526020600020905b81548152906001019060200180831161170957829003601f168201915b50505050508152602001600182015481526020016002820180546117499061288b565b80601f01602080910402602001604051908101604052809291908181526020018280546117759061288b565b80156117c25780601f10611797576101008083540402835291602001916117c2565b820191906000526020600020905b8154815290600101906020018083116117a557829003601f168201915b50505050508152602001600382015481526020016004820180546117e59061288b565b80601f01602080910402602001604051908101604052809291908181526020018280546118119061288b565b801561185e5780601f106118335761010080835404028352916020019161185e565b820191906000526020600020905b81548152906001019060200180831161184157829003601f168201915b505050505081526020016005820160009054906101000a900460ff161515151581525050915050919050565b600260009054906101000a900473ffffffffffffffffffffffffffffffffffffffff1681565b60011515600660009054906101000a900460ff16151514611906576040517f08c379a00000000000000000000000000000000000000000000000000000000081526004016118fd906123d7565b60405180910390fd5b60035442111561194b576040517f08c379a000000000000000000000000000000000000000000000000000000000815260040161194290612469565b60405180910390fd5b611953611b0f565b600660009054906101000a900460ff166119a2576040517f08c379a0000000000000000000000000000000000000000000000000000000008152600401611999906123d7565b60405180910390fd5b6000600160008373ffffffffffffffffffffffffffffffffffffffff1673ffffffffffffffffffffffffffffffffffffffff1681526020019081526020016000205414611a24576040517f08c379a0000000000000000000000000000000000000000000000000000000008152600401611a1b90612e0a565b60405180910390fd5b6001600080549050611a369190612e2a565b600160008373ffffffffffffffffffffffffffffffffffffffff1673ffffffffffffffffffffffffffffffffffffffff168152602001908152602001600020819055506000806001816001815401808255809150500390600052602060002090600802019050818160000160006101000a81548173ffffffffffffffffffffffffffffffffffffffff021916908373ffffffffffffffffffffffffffffffffffffffff1602179055505050565b600660019054906101000a900473ffffffffffffffffffffffffffffffffffffffff1681565b60055481565b60055442118015611b2c5750600660009054906101000a900460ff165b15611bb2576000600660006101000a81548160ff021916908315150217905550600260009054906101000a900473ffffffffffffffffffffffffffffffffffffffff1673ffffffffffffffffffffffffffffffffffffffff167ffad80badabe2a40e79c19c2c2623f2f3e03644d5634797af1a12527d451a7c6460405160405180910390a25b565b828054611bc09061288b565b90600052602060002090601f016020900481019282611be25760008555611c29565b82601f10611bfb57805160ff1916838001178555611c29565b82800160010185558215611c29579182015b82811115611c28578251825591602001919060010190611c0d565b5b509050611c369190611c75565b5090565b6040518060c0016040528060608152602001600081526020016060815260200160008019168152602001606081526020016000151581525090565b5b80821115611c8e576000816000905550600101611c76565b5090565b6000604051905090565b600080fd5b600080fd5b600073ffffffffffffffffffffffffffffffffffffffff82169050919050565b6000611cd182611ca6565b9050919050565b611ce181611cc6565b8114611cec57600080fd5b50565b600081359050611cfe81611cd8565b92915050565b6000819050919050565b611d1781611d04565b8114611d2257600080fd5b50565b600081359050611d3481611d0e565b92915050565b600080fd5b600080fd5b6000601f19601f8301169050919050565b7f4e487b7100000000000000000000000000000000000000000000000000000000600052604160045260246000fd5b611d8d82611d44565b810181811067ffffffffffffffff82111715611dac57611dab611d55565b5b80604052505050565b6000611dbf611c92565b9050611dcb8282611d84565b919050565b600067ffffffffffffffff821115611deb57611dea611d55565b5b611df482611d44565b9050602081019050919050565b82818337600083830152505050565b6000611e23611e1e84611dd0565b611db5565b905082815260208101848484011115611e3f57611e3e611d3f565b5b611e4a848285611e01565b509392505050565b600082601f830112611e6757611e66611d3a565b5b8135611e77848260208601611e10565b91505092915050565b600080600080600060a08688031215611e9c57611e9b611c9c565b5b6000611eaa88828901611cef565b9550506020611ebb88828901611d25565b945050604086013567ffffffffffffffff811115611edc57611edb611ca1565b5b611ee888828901611e52565b935050606086013567ffffffffffffffff811115611f0957611f08611ca1565b5b611f1588828901611e52565b925050608086013567ffffffffffffffff811115611f3657611f35611ca1565b5b611f4288828901611e52565b9150509295509295909350565b60008115159050919050565b611f6481611f4f565b82525050565b6000602082019050611f7f6000830184611f5b565b92915050565b611f8e81611d04565b82525050565b6000602082019050611fa96000830184611f85565b92915050565b600060208284031215611fc557611fc4611c9c565b5b6000611fd384828501611cef565b91505092915050565b600060208284031215611ff257611ff1611c9c565b5b600061200084828501611d25565b91505092915050565b61201281611cc6565b82525050565b600081519050919050565b600082825260208201905092915050565b60005b83811015612052578082015181840152602081019050612037565b83811115612061576000848401525b50505050565b600061207282612018565b61207c8185612023565b935061208c818560208601612034565b61209581611d44565b840191505092915050565b6120a981611d04565b82525050565b6000819050919050565b6120c2816120af565b82525050565b6120d181611f4f565b82525050565b600060c08301600083015184820360008601526120f48282612067565b915050602083015161210960208601826120a0565b50604083015184820360408601526121218282612067565b915050606083015161213660608601826120b9565b506080830151848203608086015261214e8282612067565b91505060a083015161216360a08601826120c8565b508091505092915050565b60006060820190506121836000830186612009565b818103602083015261219581856120d7565b90506121a46040830184611f5b565b949350505050565b600081519050919050565b600082825260208201905092915050565b6000819050602082019050919050565b6121e181611cc6565b82525050565b60006121f383836121d8565b60208301905092915050565b6000602082019050919050565b6000612217826121ac565b61222181856121b7565b935061222c836121c8565b8060005b8381101561225d57815161224488826121e7565b975061224f836121ff565b925050600181019050612230565b5085935050505092915050565b60006020820190508181036000830152612284818461220c565b905092915050565b6000806000606084860312156122a5576122a4611c9c565b5b60006122b386828701611cef565b935050602084013567ffffffffffffffff8111156122d4576122d3611ca1565b5b6122e086828701611e52565b925050604084013567ffffffffffffffff81111561230157612300611ca1565b5b61230d86828701611e52565b9150509250925092565b6000602082019050818103600083015261233181846120d7565b905092915050565b600060208201905061234e6000830184612009565b92915050565b600082825260208201905092915050565b7f4c696369746163696f6e2063616e63656c616461206f2066696e616c697a616460008201527f6100000000000000000000000000000000000000000000000000000000000000602082015250565b60006123c1602183612354565b91506123cc82612365565b604082019050919050565b600060208201905081810360008301526123f0816123b4565b9050919050565b7f5469656d706f2064652070726573656e746163696f6e2066696e616c697a616460008201527f6f00000000000000000000000000000000000000000000000000000000000000602082015250565b6000612453602183612354565b915061245e826123f7565b604082019050919050565b6000602082019050818103600083015261248281612446565b9050919050565b7f536f6c6f2070756564652061677265676172206f2061637475616c697a61722060008201527f756e612070726f70756573746120656c206475656e6f206465206c61206d697360208201527f6d61000000000000000000000000000000000000000000000000000000000000604082015250565b600061250b604283612354565b915061251682612489565b606082019050919050565b6000602082019050818103600083015261253a816124fe565b9050919050565b7f4c6120646972656363696f6e2064656c207061727469636970616e7465206e6f60008201527f2065737461207265676973747261646100000000000000000000000000000000602082015250565b600061259d603083612354565b91506125a882612541565b604082019050919050565b600060208201905081810360008301526125cc81612590565b9050919050565b600081905092915050565b60006125e982612018565b6125f381856125d3565b9350612603818560208601612034565b80840191505092915050565b600061261b82846125de565b915081905092915050565b600081519050919050565b600081905092915050565b600061264782612626565b6126518185612631565b9350612661818560208601612034565b80840191505092915050565b6000612679828461263c565b915081905092915050565b61268d816120af565b811461269857600080fd5b50565b6000815190506126aa81612684565b92915050565b6000602082840312156126c6576126c5611c9c565b5b60006126d48482850161269b565b91505092915050565b7f4e487b7100000000000000000000000000000000000000000000000000000000600052601160045260246000fd5b600061271782611d04565b915061272283611d04565b925082821015612735576127346126dd565b5b828203905092915050565b7f4e487b7100000000000000000000000000000000000000000000000000000000600052603260045260246000fd5b600061277a82612018565b6127848185612354565b9350612794818560208601612034565b61279d81611d44565b840191505092915050565b600060208201905081810360008301526127c2818461276f565b905092915050565b7f536f6c6f20656c206c6963697461646f7220707565646520656a65637574617260008201527f206573746120616363696f6e0000000000000000000000000000000000000000602082015250565b6000612826602c83612354565b9150612831826127ca565b604082019050919050565b6000602082019050818103600083015261285581612819565b9050919050565b7f4e487b7100000000000000000000000000000000000000000000000000000000600052602260045260246000fd5b600060028204905060018216806128a357607f821691505b6020821081036128b6576128b561285c565b5b50919050565b60006128c782611d04565b91507fffffffffffffffffffffffffffffffffffffffffffffffffffffffffffffffff82036128f9576128f86126dd565b5b600182019050919050565b7f46756572612064656c20706572696f646f20646520726576656c6163696f6e2060008201527f646520646f63756d656e746f7300000000000000000000000000000000000000602082015250565b6000612960602d83612354565b915061296b82612904565b604082019050919050565b6000602082019050818103600083015261298f81612953565b9050919050565b7f536f6c6f20707565646520726576656c617220656c20646f63756d656e746f2060008201527f656c206475656e6f206465206c612070726f7075657374610000000000000000602082015250565b60006129f2603883612354565b91506129fd82612996565b604082019050919050565b60006020820190508181036000830152612a21816129e5565b9050919050565b60008190508160005260206000209050919050565b60008154612a4a8161288b565b612a5481866125d3565b94506001821660008114612a6f5760018114612a8057612ab3565b60ff19831686528186019350612ab3565b612a8985612a28565b60005b83811015612aab57815481890152600182019150602081019050612a8c565b838801955050505b50505092915050565b6000612ac88284612a3d565b915081905092915050565b7f456c206e6f6d627265206465206c612070726f707565737461206e6f20636f6960008201527f6e63696465000000000000000000000000000000000000000000000000000000602082015250565b6000612b2f602583612354565b9150612b3a82612ad3565b604082019050919050565b60006020820190508181036000830152612b5e81612b22565b9050919050565b7f456c20646f63756d656e746f207961206861207369646f20726576656c61646f600082015250565b6000612b9b602083612354565b9150612ba682612b65565b602082019050919050565b60006020820190508181036000830152612bca81612b8e565b9050919050565b7f456c20646f63756d656e746f206e6f20636f696e6369646520636f6e20656c2060008201527f6861736800000000000000000000000000000000000000000000000000000000602082015250565b6000612c2d602483612354565b9150612c3882612bd1565b604082019050919050565b60006020820190508181036000830152612c5c81612c20565b9050919050565b60006040820190508181036000830152612c7d818561276f565b90508181036020830152612c91818461276f565b90509392505050565b7f46756572612064656c20706572696f646f206465206576616c756163696f6e00600082015250565b6000612cd0601f83612354565b9150612cdb82612c9a565b602082019050919050565b60006020820190508181036000830152612cff81612cc3565b9050919050565b7f4c6120726576656c6163696f6e20646520646f63756d656e746f732061756e2060008201527f6e6f2068612066696e616c697a61646f00000000000000000000000000000000602082015250565b6000612d62603083612354565b9150612d6d82612d06565b604082019050919050565b60006020820190508181036000830152612d9181612d55565b9050919050565b7f4c6120646972656363696f6e2064656c207061727469636970616e746520796160008201527f2065737461207265676973747261646100000000000000000000000000000000602082015250565b6000612df4603083612354565b9150612dff82612d98565b604082019050919050565b60006020820190508181036000830152612e2381612de7565b9050919050565b6000612e3582611d04565b9150612e4083611d04565b9250827fffffffffffffffffffffffffffffffffffffffffffffffffffffffffffffffff03821115612e7557612e746126dd565b5b82820190509291505056fea26469706673582212203111291decd64631843daf7a04a58f4cc2c56d3cd377032c641b3d9a6b46f6be64736f6c634300080d0033",
  "immutableReferences": {},
  "source": "// SPDX-License-Identifier: MIT\r\npragma solidity ^0.8.13;\r\n\r\nimport \"./Payments.sol\";\r\n\r\ncontract Tender {\r\n\r\n    struct Proposal {\r\n        string name;\r\n        uint256 quantity;\r\n        string description;\r\n        bytes32 hashDocument;\r\n        string realDocument;\r\n        bool documentRevealed;\r\n    }\r\n\r\n    struct Participant {\r\n        address direccion;\r\n        Proposal proposal;\r\n        bool hasProposal;\r\n    }\r\n\r\n    Participant[] public participants;\r\n    mapping(address => uint256) public indexParticipant;\r\n    address public licitador;\r\n    uint256 public deadline;\r\n    uint256 public revealDeadline;\r\n    uint256 public evaluationDeadline;\r\n    bool public active;\r\n    address public winner;\r\n    address private paymentsContract;\r\n\r\n    event GanadorLicitacion(address indexed ganador, string name);\r\n    event DocumentRevealed(address indexed participant, string name, string realDocument);\r\n    event NuevaLicitacion(address indexed tender, address indexed licitador, uint256 deadline, uint256 revealDeadline, uint256 evaluationDeadline);\r\n    event LicitacionCancelada(address indexed licitador);\r\n    event PropuestaActualizada(address indexed participant, string name);\r\n\r\n    constructor(uint256 _deadline, uint256 _revealTime, uint256 _evaluationTime, address _paymentsContract, address _licitador) {\r\n        licitador = _licitador;\r\n        deadline = block.timestamp + _deadline;\r\n        revealDeadline = deadline + _revealTime;\r\n        evaluationDeadline = revealDeadline + _evaluationTime;\r\n        active = true;\r\n        paymentsContract = _paymentsContract;\r\n        emit NuevaLicitacion(address(this), licitador, deadline, revealDeadline, evaluationDeadline);\r\n    }\r\n\r\n    modifier onlyLicitador() {\r\n        require(msg.sender == licitador, \"Solo el licitador puede ejecutar esta accion\");\r\n        _;\r\n    }\r\n\r\n    modifier activeTender() {\r\n        require(active == true, \"Licitacion cancelada o finalizada\");\r\n        _;\r\n    }\r\n\r\n    modifier withinDeadline() {\r\n        require(block.timestamp <= deadline, \"Tiempo de presentacion finalizado\");\r\n        _;\r\n    }\r\n\r\n    modifier withinRevealPeriod() {\r\n        require(block.timestamp > deadline && block.timestamp <= revealDeadline, \"Fuera del periodo de revelacion de documentos\");\r\n        _;\r\n    }\r\n\r\n    modifier withinEvaluationPeriod() {\r\n        require(block.timestamp > revealDeadline && block.timestamp <= evaluationDeadline, \"Fuera del periodo de evaluacion\");\r\n        _;\r\n    }\r\n\r\n    function updateStatus() internal {\r\n        if (block.timestamp > evaluationDeadline && active) {\r\n            active = false;\r\n            emit LicitacionCancelada(licitador);\r\n        }\r\n    }\r\n\r\n    function addParticipant(address _direccion) public activeTender withinDeadline {\r\n        updateStatus();\r\n        require(active, \"Licitacion cancelada o finalizada\");\r\n        require(indexParticipant[_direccion] == 0, \"La direccion del participante ya esta registrada\");\r\n        indexParticipant[_direccion] = participants.length + 1;\r\n        Participant storage participant = participants.push();\r\n        participant.direccion = _direccion;\r\n    }\r\n\r\n    function addOrUpdateProposal(address _direccion, uint256 _quantity, string memory _description, string memory _name, string memory _document) public activeTender withinDeadline {\r\n        updateStatus();\r\n        require(active, \"Licitacion cancelada o finalizada\");\r\n        require(msg.sender == _direccion, \"Solo puede agregar o actualizar una propuesta el dueno de la misma\");\r\n        uint256 indice = indexParticipant[_direccion];\r\n        require(indice > 0, \"La direccion del participante no esta registrada\");\r\n\r\n        bytes32 hashDocument = sha256(abi.encodePacked(_document));\r\n\r\n        Participant storage participant = participants[indice - 1];\r\n        participant.proposal = Proposal(_name, _quantity, _description, hashDocument, \"\", false);\r\n        participant.hasProposal = true;\r\n        emit PropuestaActualizada(_direccion, _name);\r\n    }\r\n\r\n    function revealDocument(address _direccion, string memory _name, string memory _realDocument) public activeTender withinRevealPeriod {\r\n        updateStatus();\r\n        require(active, \"Licitacion cancelada o finalizada\");\r\n        require(msg.sender == _direccion, \"Solo puede revelar el documento el dueno de la propuesta\");\r\n        uint256 indice = indexParticipant[_direccion];\r\n        require(indice > 0, \"La direccion del participante no esta registrada\");\r\n\r\n        Participant storage participant = participants[indice - 1];\r\n        Proposal storage proposal = participant.proposal;\r\n        require(sha256(abi.encodePacked(proposal.name)) == sha256(abi.encodePacked(_name)), \"El nombre de la propuesta no coincide\");\r\n        require(!proposal.documentRevealed, \"El documento ya ha sido revelado\");\r\n\r\n        bytes32 storedDocumentHash = proposal.hashDocument;\r\n        bytes32 realDocumentHash = sha256(abi.encodePacked(_realDocument));\r\n        require(realDocumentHash == storedDocumentHash, \"El documento no coincide con el hash\");\r\n\r\n        proposal.realDocument = _realDocument;\r\n        proposal.documentRevealed = true;\r\n        emit DocumentRevealed(_direccion, _name, _realDocument);\r\n    }\r\n\r\n    function seleccionarGanador(address _winner) public activeTender withinEvaluationPeriod onlyLicitador {\r\n        updateStatus();\r\n        require(active, \"Licitacion cancelada o finalizada\");\r\n        require(block.timestamp >= revealDeadline, \"La revelacion de documentos aun no ha finalizado\");\r\n        uint256 indice = indexParticipant[_winner];\r\n        require(indice > 0, \"La direccion del participante no esta registrada\");\r\n\r\n        Participant storage participant = participants[indice - 1];\r\n        Proposal memory proposal = participant.proposal;\r\n        winner = _winner;\r\n        active = false;\r\n\r\n        emit GanadorLicitacion(_winner, proposal.name);\r\n    }\r\n\r\n    function getParticipants() public view returns (address[] memory) {\r\n        address[] memory participantAddresses = new address[](participants.length);\r\n        for (uint i = 0; i < participants.length; i++) {\r\n            participantAddresses[i] = participants[i].direccion;\r\n        }\r\n        return participantAddresses;\r\n    }\r\n\r\n    function getProposalByParticipant(address _direccion) public view returns (Proposal memory) {\r\n        uint256 indice = indexParticipant[_direccion];\r\n        require(indice > 0, \"La direccion del participante no esta registrada\");\r\n        return participants[indice - 1].proposal;\r\n    }\r\n\r\n    function cancelarLicitacion() public onlyLicitador activeTender {\r\n        active = false;\r\n        emit LicitacionCancelada(msg.sender);\r\n    }\r\n\r\n    function checkAndUpdateStatus() public {\r\n        updateStatus();\r\n    }\r\n}\r\n",
  "sourcePath": "c:\\Users\\david asensio\\Desktop\\proyecto tfg\\coso2\\contracts\\Tender.sol",
  "compiler": {
    "name": "solc",
    "version": "0.8.13+commit.abaa5c0e.Emscripten.clang"
  },
  "schemaVersion": "3.4.16",
  "updatedAt": "2024-06-12T08:50:40.033Z",
  "devdoc": {
    "kind": "dev",
    "methods": {},
    "version": 1
  },
  "userdoc": {
    "kind": "user",
    "methods": {},
    "version": 1
  }
}