{
  "contractName": "UserManagament",
  "abi": [
    {
      "inputs": [
        {
          "internalType": "address",
          "name": "_owner",
          "type": "address"
        }
      ],
      "stateMutability": "nonpayable",
      "type": "constructor"
    },
    {
      "inputs": [],
      "name": "owner",
      "outputs": [
        {
          "internalType": "address",
          "name": "",
          "type": "address"
        }
      ],
      "stateMutability": "view",
      "type": "function"
    },
    {
      "inputs": [
        {
          "internalType": "uint256",
          "name": "",
          "type": "uint256"
        }
      ],
      "name": "userAddresses",
      "outputs": [
        {
          "internalType": "address",
          "name": "",
          "type": "address"
        }
      ],
      "stateMutability": "view",
      "type": "function"
    },
    {
      "inputs": [
        {
          "internalType": "address",
          "name": "",
          "type": "address"
        }
      ],
      "name": "users",
      "outputs": [
        {
          "internalType": "string",
          "name": "name",
          "type": "string"
        },
        {
          "internalType": "bool",
          "name": "isRegistered",
          "type": "bool"
        },
        {
          "internalType": "bool",
          "name": "isAdmin",
          "type": "bool"
        }
      ],
      "stateMutability": "view",
      "type": "function"
    },
    {
      "inputs": [
        {
          "internalType": "address",
          "name": "userAddress",
          "type": "address"
        },
        {
          "internalType": "string",
          "name": "_name",
          "type": "string"
        }
      ],
      "name": "registerUser",
      "outputs": [],
      "stateMutability": "nonpayable",
      "type": "function"
    },
    {
      "inputs": [
        {
          "internalType": "address",
          "name": "_user",
          "type": "address"
        }
      ],
      "name": "isUserRegistered",
      "outputs": [
        {
          "internalType": "bool",
          "name": "",
          "type": "bool"
        }
      ],
      "stateMutability": "view",
      "type": "function"
    },
    {
      "inputs": [
        {
          "internalType": "address",
          "name": "_user",
          "type": "address"
        }
      ],
      "name": "getUser",
      "outputs": [
        {
          "internalType": "string",
          "name": "name",
          "type": "string"
        },
        {
          "internalType": "bool",
          "name": "is_admin",
          "type": "bool"
        }
      ],
      "stateMutability": "view",
      "type": "function"
    },
    {
      "inputs": [],
      "name": "getAllUsers",
      "outputs": [
        {
          "internalType": "address[]",
          "name": "",
          "type": "address[]"
        }
      ],
      "stateMutability": "view",
      "type": "function"
    },
    {
      "inputs": [
        {
          "internalType": "address",
          "name": "_user",
          "type": "address"
        }
      ],
      "name": "isAdmin",
      "outputs": [
        {
          "internalType": "bool",
          "name": "",
          "type": "bool"
        }
      ],
      "stateMutability": "view",
      "type": "function"
    },
    {
      "inputs": [
        {
          "internalType": "address",
          "name": "_user",
          "type": "address"
        }
      ],
      "name": "makeAdmin",
      "outputs": [],
      "stateMutability": "nonpayable",
      "type": "function"
    },
    {
      "inputs": [
        {
          "internalType": "address",
          "name": "_user",
          "type": "address"
        }
      ],
      "name": "revokeAdmin",
      "outputs": [],
      "stateMutability": "nonpayable",
      "type": "function"
    }
  ],
  "bytecode": "0x60806040523480156200001157600080fd5b506040516200165438038062001654833981810160405281019062000037919062000333565b806000806101000a81548173ffffffffffffffffffffffffffffffffffffffff021916908373ffffffffffffffffffffffffffffffffffffffff16021790555060405180606001604052806040518060400160405280600581526020017f4f776e6572000000000000000000000000000000000000000000000000000000815250815260200160011515815260200160011515815250600160008060009054906101000a900473ffffffffffffffffffffffffffffffffffffffff1673ffffffffffffffffffffffffffffffffffffffff1673ffffffffffffffffffffffffffffffffffffffff16815260200190815260200160002060008201518160000190805190602001906200014b92919062000219565b5060208201518160010160006101000a81548160ff02191690831515021790555060408201518160010160016101000a81548160ff021916908315150217905550905050600260008054906101000a900473ffffffffffffffffffffffffffffffffffffffff169080600181540180825580915050600190039060005260206000200160009091909190916101000a81548173ffffffffffffffffffffffffffffffffffffffff021916908373ffffffffffffffffffffffffffffffffffffffff16021790555050620003c9565b828054620002279062000394565b90600052602060002090601f0160209004810192826200024b576000855562000297565b82601f106200026657805160ff191683800117855562000297565b8280016001018555821562000297579182015b828111156200029657825182559160200191906001019062000279565b5b509050620002a69190620002aa565b5090565b5b80821115620002c5576000816000905550600101620002ab565b5090565b600080fd5b600073ffffffffffffffffffffffffffffffffffffffff82169050919050565b6000620002fb82620002ce565b9050919050565b6200030d81620002ee565b81146200031957600080fd5b50565b6000815190506200032d8162000302565b92915050565b6000602082840312156200034c576200034b620002c9565b5b60006200035c848285016200031c565b91505092915050565b7f4e487b7100000000000000000000000000000000000000000000000000000000600052602260045260246000fd5b60006002820490506001821680620003ad57607f821691505b602082108103620003c357620003c262000365565b5b50919050565b61127b80620003d96000396000f3fe608060405234801561001057600080fd5b506004361061009e5760003560e01c8063502c9bd511610066578063502c9bd5146101575780636f77926b146101875780638da5cb5b146101b8578063a87430ba146101d6578063e2842d79146102085761009e565b80630ea126f9146100a3578063163f7522146100bf57806324d7806c146100ef5780632d3456701461011f578063472905ca1461013b575b600080fd5b6100bd60048036038101906100b89190610d59565b610226565b005b6100d960048036038101906100d49190610db5565b6103dd565b6040516100e69190610dfd565b60405180910390f35b61010960048036038101906101049190610db5565b610436565b6040516101169190610dfd565b60405180910390f35b61013960048036038101906101349190610db5565b61048f565b005b61015560048036038101906101509190610db5565b61060a565b005b610171600480360381019061016c9190610e4e565b610784565b60405161017e9190610e8a565b60405180910390f35b6101a1600480360381019061019c9190610db5565b6107c3565b6040516101af929190610f2d565b60405180910390f35b6101c0610980565b6040516101cd9190610e8a565b60405180910390f35b6101f060048036038101906101eb9190610db5565b6109a4565b6040516101ff93929190610f5d565b60405180910390f35b610210610a70565b60405161021d9190611059565b60405180910390f35b600160008373ffffffffffffffffffffffffffffffffffffffff1673ffffffffffffffffffffffffffffffffffffffff16815260200190815260200160002060010160009054906101000a900460ff16156102b6576040517f08c379a00000000000000000000000000000000000000000000000000000000081526004016102ad906110c7565b60405180910390fd5b604051806060016040528082815260200160011515815260200160001515815250600160008473ffffffffffffffffffffffffffffffffffffffff1673ffffffffffffffffffffffffffffffffffffffff1681526020019081526020016000206000820151816000019080519060200190610332929190610afe565b5060208201518160010160006101000a81548160ff02191690831515021790555060408201518160010160016101000a81548160ff0219169083151502179055509050506002829080600181540180825580915050600190039060005260206000200160009091909190916101000a81548173ffffffffffffffffffffffffffffffffffffffff021916908373ffffffffffffffffffffffffffffffffffffffff1602179055505050565b6000600160008373ffffffffffffffffffffffffffffffffffffffff1673ffffffffffffffffffffffffffffffffffffffff16815260200190815260200160002060010160009054906101000a900460ff169050919050565b6000600160008373ffffffffffffffffffffffffffffffffffffffff1673ffffffffffffffffffffffffffffffffffffffff16815260200190815260200160002060010160019054906101000a900460ff169050919050565b60008054906101000a900473ffffffffffffffffffffffffffffffffffffffff1673ffffffffffffffffffffffffffffffffffffffff163373ffffffffffffffffffffffffffffffffffffffff161461051d576040517f08c379a000000000000000000000000000000000000000000000000000000000815260040161051490611159565b60405180910390fd5b600160008273ffffffffffffffffffffffffffffffffffffffff1673ffffffffffffffffffffffffffffffffffffffff16815260200190815260200160002060010160009054906101000a900460ff166105ac576040517f08c379a00000000000000000000000000000000000000000000000000000000081526004016105a3906111c5565b60405180910390fd5b6000600160008373ffffffffffffffffffffffffffffffffffffffff1673ffffffffffffffffffffffffffffffffffffffff16815260200190815260200160002060010160016101000a81548160ff02191690831515021790555050565b60008054906101000a900473ffffffffffffffffffffffffffffffffffffffff1673ffffffffffffffffffffffffffffffffffffffff163373ffffffffffffffffffffffffffffffffffffffff1614610698576040517f08c379a000000000000000000000000000000000000000000000000000000000815260040161068f90611159565b60405180910390fd5b600160008273ffffffffffffffffffffffffffffffffffffffff1673ffffffffffffffffffffffffffffffffffffffff16815260200190815260200160002060010160009054906101000a900460ff16610727576040517f08c379a000000000000000000000000000000000000000000000000000000000815260040161071e906111c5565b60405180910390fd5b60018060008373ffffffffffffffffffffffffffffffffffffffff1673ffffffffffffffffffffffffffffffffffffffff16815260200190815260200160002060010160016101000a81548160ff02191690831515021790555050565b6002818154811061079457600080fd5b906000526020600020016000915054906101000a900473ffffffffffffffffffffffffffffffffffffffff1681565b60606000600160008473ffffffffffffffffffffffffffffffffffffffff1673ffffffffffffffffffffffffffffffffffffffff16815260200190815260200160002060010160009054906101000a900460ff16610856576040517f08c379a000000000000000000000000000000000000000000000000000000000815260040161084d906111c5565b60405180910390fd5b6000600160008573ffffffffffffffffffffffffffffffffffffffff1673ffffffffffffffffffffffffffffffffffffffff1681526020019081526020016000206040518060600160405290816000820180546108b290611214565b80601f01602080910402602001604051908101604052809291908181526020018280546108de90611214565b801561092b5780601f106109005761010080835404028352916020019161092b565b820191906000526020600020905b81548152906001019060200180831161090e57829003601f168201915b505050505081526020016001820160009054906101000a900460ff161515151581526020016001820160019054906101000a900460ff1615151515815250509050806000015181604001519250925050915091565b60008054906101000a900473ffffffffffffffffffffffffffffffffffffffff1681565b60016020528060005260406000206000915090508060000180546109c790611214565b80601f01602080910402602001604051908101604052809291908181526020018280546109f390611214565b8015610a405780601f10610a1557610100808354040283529160200191610a40565b820191906000526020600020905b815481529060010190602001808311610a2357829003601f168201915b5050505050908060010160009054906101000a900460ff16908060010160019054906101000a900460ff16905083565b60606002805480602002602001604051908101604052809291908181526020018280548015610af457602002820191906000526020600020905b8160009054906101000a900473ffffffffffffffffffffffffffffffffffffffff1673ffffffffffffffffffffffffffffffffffffffff1681526020019060010190808311610aaa575b5050505050905090565b828054610b0a90611214565b90600052602060002090601f016020900481019282610b2c5760008555610b73565b82601f10610b4557805160ff1916838001178555610b73565b82800160010185558215610b73579182015b82811115610b72578251825591602001919060010190610b57565b5b509050610b809190610b84565b5090565b5b80821115610b9d576000816000905550600101610b85565b5090565b6000604051905090565b600080fd5b600080fd5b600073ffffffffffffffffffffffffffffffffffffffff82169050919050565b6000610be082610bb5565b9050919050565b610bf081610bd5565b8114610bfb57600080fd5b50565b600081359050610c0d81610be7565b92915050565b600080fd5b600080fd5b6000601f19601f8301169050919050565b7f4e487b7100000000000000000000000000000000000000000000000000000000600052604160045260246000fd5b610c6682610c1d565b810181811067ffffffffffffffff82111715610c8557610c84610c2e565b5b80604052505050565b6000610c98610ba1565b9050610ca48282610c5d565b919050565b600067ffffffffffffffff821115610cc457610cc3610c2e565b5b610ccd82610c1d565b9050602081019050919050565b82818337600083830152505050565b6000610cfc610cf784610ca9565b610c8e565b905082815260208101848484011115610d1857610d17610c18565b5b610d23848285610cda565b509392505050565b600082601f830112610d4057610d3f610c13565b5b8135610d50848260208601610ce9565b91505092915050565b60008060408385031215610d7057610d6f610bab565b5b6000610d7e85828601610bfe565b925050602083013567ffffffffffffffff811115610d9f57610d9e610bb0565b5b610dab85828601610d2b565b9150509250929050565b600060208284031215610dcb57610dca610bab565b5b6000610dd984828501610bfe565b91505092915050565b60008115159050919050565b610df781610de2565b82525050565b6000602082019050610e126000830184610dee565b92915050565b6000819050919050565b610e2b81610e18565b8114610e3657600080fd5b50565b600081359050610e4881610e22565b92915050565b600060208284031215610e6457610e63610bab565b5b6000610e7284828501610e39565b91505092915050565b610e8481610bd5565b82525050565b6000602082019050610e9f6000830184610e7b565b92915050565b600081519050919050565b600082825260208201905092915050565b60005b83811015610edf578082015181840152602081019050610ec4565b83811115610eee576000848401525b50505050565b6000610eff82610ea5565b610f098185610eb0565b9350610f19818560208601610ec1565b610f2281610c1d565b840191505092915050565b60006040820190508181036000830152610f478185610ef4565b9050610f566020830184610dee565b9392505050565b60006060820190508181036000830152610f778186610ef4565b9050610f866020830185610dee565b610f936040830184610dee565b949350505050565b600081519050919050565b600082825260208201905092915050565b6000819050602082019050919050565b610fd081610bd5565b82525050565b6000610fe28383610fc7565b60208301905092915050565b6000602082019050919050565b600061100682610f9b565b6110108185610fa6565b935061101b83610fb7565b8060005b8381101561104c5781516110338882610fd6565b975061103e83610fee565b92505060018101905061101f565b5085935050505092915050565b600060208201905081810360008301526110738184610ffb565b905092915050565b7f5573657220616c72656164792072656769737465726564000000000000000000600082015250565b60006110b1601783610eb0565b91506110bc8261107b565b602082019050919050565b600060208201905081810360008301526110e0816110a4565b9050919050565b7f4f6e6c79206f776e65722063616e20706572666f726d2074686973206163746960008201527f6f6e000000000000000000000000000000000000000000000000000000000000602082015250565b6000611143602283610eb0565b915061114e826110e7565b604082019050919050565b6000602082019050818103600083015261117281611136565b9050919050565b7f55736572206e6f74207265676973746572656400000000000000000000000000600082015250565b60006111af601383610eb0565b91506111ba82611179565b602082019050919050565b600060208201905081810360008301526111de816111a2565b9050919050565b7f4e487b7100000000000000000000000000000000000000000000000000000000600052602260045260246000fd5b6000600282049050600182168061122c57607f821691505b60208210810361123f5761123e6111e5565b5b5091905056fea2646970667358221220cf5a62b6ffc6ce4f2d91dca4e20c3209840f3c155f1227688288ba1744a9f89f64736f6c634300080d0033",
  "immutableReferences": {},
  "source": "// SPDX-License-Identifier: MIT\npragma solidity ^0.8.13;\n\ncontract UserManagament {\n    // Estructura para almacenar la informacin del usuario\n    struct User {\n        string name;\n        bool isRegistered;\n        bool isAdmin;\n    }\n\n    // Direccin del dueo del contrato (super admin)\n    address public owner;\n\n    // Mapping para almacenar los usuarios por su direccin\n    mapping(address => User) public users;\n    // Array para almacenar las direcciones de los usuarios registrados\n    address[] public userAddresses;\n\n    // Modificador para funciones restringidas a administradores\n    modifier onlyAdmin() {\n        require(users[msg.sender].isAdmin, \"Only admin can perform this action\");\n        _;\n    }\n\n    // Modificador para funciones restringidas al dueo del contrato\n    modifier onlyOwner() {\n        require(msg.sender == owner, \"Only owner can perform this action\");\n        _;\n    }\n\n    // Constructor para inicializar el dueo del contrato\n    constructor(address _owner) {\n        owner = _owner;\n        users[owner] = User({\n            name: \"Owner\",\n            isRegistered: true,\n            isAdmin: true\n        });\n        userAddresses.push(owner);\n    }\n\n    // Funcin para registrar un nuevo usuario\n    function registerUser(address userAddress, string memory _name) public {\n        require(!users[userAddress].isRegistered, \"User already registered\");\n\n        // Registrar al usuario\n        users[userAddress] = User({\n            name: _name,\n            isRegistered: true,\n            isAdmin: false\n        });\n\n        // Aadir la direccin del usuario al array de direcciones\n        userAddresses.push(userAddress);\n    }\n\n    // Funcin para verificar si un usuario est registrado\n    function isUserRegistered(address _user) public view returns (bool) {\n        return users[_user].isRegistered;\n    }\n\n    // Funcin para obtener informacin del usuario\n    function getUser(address _user) public view returns (string memory name, bool is_admin) {\n        require(users[_user].isRegistered, \"User not registered\");\n\n        User memory user = users[_user];\n        return (user.name, user.isAdmin);\n    }\n\n    // Funcin para obtener todas las direcciones de usuarios registrados\n    function getAllUsers() public view returns (address[] memory) {\n        return userAddresses;\n    }\n\n    // Funcin para verificar si un usuario es administrador\n    function isAdmin(address _user) public view returns (bool) {\n        return users[_user].isAdmin;\n    }\n\n    // Funcin para asignar el rol de administrador a un usuario (solo el dueo puede hacerlo)\n    function makeAdmin(address _user) public onlyOwner {\n        require(users[_user].isRegistered, \"User not registered\");\n        users[_user].isAdmin = true;\n    }\n\n    // Funcin para revocar el rol de administrador a un usuario (solo el dueo puede hacerlo)\n    function revokeAdmin(address _user) public onlyOwner {\n        require(users[_user].isRegistered, \"User not registered\");\n        users[_user].isAdmin = false;\n    }\n}\n\n",
  "sourcePath": "c:\\Users\\david asensio\\Desktop\\proyecto tfg\\coso2\\contracts\\UserManagament.sol",
  "compiler": {
    "name": "solc",
    "version": "0.8.13+commit.abaa5c0e.Emscripten.clang"
  },
  "schemaVersion": "3.4.16",
  "updatedAt": "2024-06-12T08:50:40.078Z",
  "devdoc": {
    "kind": "dev",
    "methods": {},
    "version": 1
  },
  "userdoc": {
    "kind": "user",
    "methods": {},
    "version": 1
  }
}