{
  "contractName": "Licitaciones",
  "abi": [
    {
      "inputs": [
        {
          "internalType": "address",
          "name": "account",
          "type": "address"
        }
      ],
      "name": "getBalanceInEther",
      "outputs": [
        {
          "internalType": "uint256",
          "name": "",
          "type": "uint256"
        }
      ],
      "stateMutability": "view",
      "type": "function",
      "constant": true
    }
  ],
  "bytecode": "0x608060405234801561001057600080fd5b50610205806100206000396000f3fe608060405234801561001057600080fd5b506004361061002b5760003560e01c8063c68ea02714610030575b600080fd5b61004a6004803603810190610045919061010e565b610060565b6040516100579190610154565b60405180910390f35b6000808273ffffffffffffffffffffffffffffffffffffffff163190506100868161008e565b915050919050565b6000670de0b6b3a7640000826100a4919061019e565b9050919050565b600080fd5b600073ffffffffffffffffffffffffffffffffffffffff82169050919050565b60006100db826100b0565b9050919050565b6100eb816100d0565b81146100f657600080fd5b50565b600081359050610108816100e2565b92915050565b600060208284031215610124576101236100ab565b5b6000610132848285016100f9565b91505092915050565b6000819050919050565b61014e8161013b565b82525050565b60006020820190506101696000830184610145565b92915050565b7f4e487b7100000000000000000000000000000000000000000000000000000000600052601260045260246000fd5b60006101a98261013b565b91506101b48361013b565b9250826101c4576101c361016f565b5b82820490509291505056fea264697066735822122020dd0f131823c2b6ec7bea64ff67f80ab059a558491a54763492e53537e56f8a64736f6c634300080d0033",
  "immutableReferences": {},
  "source": "// SPDX-License-Identifier: MIT\n// Tells the Solidity compiler to compile only from v0.8.13 to v0.9.0\npragma solidity ^0.8.13;\n\ncontract Licitaciones {\n\n    // Mapeo que asocia direcciones de cuentas con un booleano que indica si pueden o no crear licitaciones\n    mapping(address => bool) private page_clients;\n\n    // Funci贸n para permitir que una cuenta pueda crear licitaciones\n    function allowCreatingLicitacion(address account) private {\n        page_clients[account] = true;\n    }\n\n    // Funci贸n para revocar el permiso de una cuenta para crear licitaciones\n    function disallowCreatingLicitacion(address account) private {\n        page_clients[account] = false;\n    }\n    // Funci贸n auxiliar para convertir wei a Ether\n    function convertToEther(uint256 amountInWei) internal pure returns (uint256) {\n        return amountInWei / 1 ether;\n    }\n\n    // Funci贸n para obtener el saldo en Ether de una cuenta\n    function getBalanceInEther(address account) public view returns (uint256) {\n        // Obtiene el saldo en wei de la cuenta\n        uint256 balanceInWei = account.balance;\n        // Convierte el saldo de wei a Ether\n        return convertToEther(balanceInWei);\n    }\n\n\n}\n",
  "sourcePath": "c:\\Users\\david asensio\\Desktop\\proyecto tfg\\coso2\\contracts\\Licitaciones.sol",
  "compiler": {
    "name": "solc",
    "version": "0.8.13+commit.abaa5c0e.Emscripten.clang"
  },
  "schemaVersion": "3.4.16",
  "updatedAt": "2024-04-16T11:26:01.346Z",
  "networkType": "ethereum",
  "devdoc": {
    "kind": "dev",
    "methods": {},
    "version": 1
  },
  "userdoc": {
    "kind": "user",
    "methods": {},
    "version": 1
  }
}